:1070000055C00000B7C00000B5C00000B3C000000C
:10701000B1C00000AFC00000ADC00000ABC00000B8
:10702000A9C00000A7C00000F9C00000A3C0000074
:10703000A1C000009FC000009DC000009BC00000D8
:1070400099C0000097C0000095C0000093C00000E8
:1070500018C300008FC000008DC000008BC000006E
:1070600089C0000087C0000085C0000083C0000008
:1070700081C000007FC000007DC000007BC0000018
:1070800079C0000077C0000075C0000073C0000028
:1070900071C000006FC000006DC000006BC0000038
:1070A00069C0000067C0000065C0000011241FBE59
:1070B000CFEFDAE0DEBFCDBF89E0E3E0F0E0809320
:1070C0005700849180FD12C004B601FE0AC081E021
:1070D0002091890130918A0122343C4D19F080E0E1
:1070E00001C081E094B79D7F94BF11C004B603FE38
:1070F0000AC081E02091890130918A0122343C4DFF
:1071000019F080E001C080E094B7977F94BF30E031
:1071100020E0F901459154918823B9F04F3F5F4F2A
:10712000A1F084B7877F84BF0FB6F894A8958091AB
:107130006000886180936000109260000FBE109222
:107140008A0110928901F901099511E0A0E0B1E0EE
:10715000E4EFFEE702C005900D92AC36B107D9F717
:1071600021E0ACE6B1E001C01D92A938B207E1F719
:1071700098D2BEC645CF8091800187FF11C0809113
:10718000E80082FF06C08091E8008B7F8093E800D2
:1071900003C08EB38111F3CF08958EB38823E1F33A
:1071A0008091E80080FFF9CF8091E8008E7FEECFDC
:1071B000E8E7F1E082819381582F492F84819581FE
:1071C00098278927982750937701409376019093C9
:1071D0007501809374010895815098F09091F300A7
:1071E0002091F200392F232B69F49091E8009B7FC6
:1071F0009093E8009091E80092FDEECF9EB391113C
:10720000F9CF08959091F100E7CF80B180B981B1B5
:1072100081B980B180B981B181B908950F920FB65B
:107220000F921F9211248F939F938091DA0080FF19
:1072300016C08091D80080FF12C08091DA008E7F46
:107240008093DA008091D90080FF83C080E189BDFE
:1072500082E189BD09B400FEFDCF81E08EBB809143
:10726000E10080FF16C08091E20080FF12C0809193
:10727000E2008E7F8093E2008091E2008061809343
:10728000E2008091D80080628093D80019BC85E02C
:107290008EBB8091E10084FF27C08091E20084FFD3
:1072A00023C080E189BD82E189BD89B5982F9170A5
:1072B00080FFFBCF8091D8008F7D8093D800809194
:1072C000E1008F7E8093E1008091E2008F7E8093C9
:1072D000E2008091E20081608093E2008091880169
:1072E0008823D1F184E08EBB8091E10083FF2AC026
:1072F0008091E20083FF26C08091E100877F809328
:10730000E10082E08EBB109288018091E1008E7FC7
:107310008093E1008091E2008E7F8093E200809173
:10732000E20080618093E2008091EB0081608093B5
:10733000EB001092ED001092EC0082E28093ED00E1
:107340008091EE009F918F911F900F900FBE0F9034
:10735000189519BC1EBA83CF8091E30087FD93E096
:107360009EBBC2CF9FB7F89407B600FCFDCFF9993A
:10737000FECF809529E0E1E0F0E0082E2093570051
:10738000E8959FBF089589E0E1E0F0E08093570021
:107390008491089529E0FC01209357008491089579
:1073A00021E2FC01209357008491089507B600FC68
:1073B000FDCFF999FECF21E0FB010A012093570090
:1073C000E895112408950F931F93611520E7720724
:1073D0008105910550F48B019C010F77112722271D
:1073E0003327012B022B032B19F01F910F910895C6
:1073F0002FB7F89407B600FCFDCFF999FECF35E022
:10740000FB0130935700E89507B600FCFDCF81E102
:1074100080935700E8952FBFE8CF0F931F93611516
:1074200020E772078105910550F48B019C010F77CD
:10743000112722273327012B022B032B19F01F9131
:107440000F9108952FB7F89407B600FCFDCFF99976
:10745000FECF33E0FB0130935700E89507B600FC00
:10746000FDCF81E180935700E8952FBFE8CFCF9201
:10747000DF92EF92FF921F93CF93DF9300D00F9292
:10748000CDB7DEB78091780190917301992309F40B
:1074900042C0843039F580917901811126C08091F4
:1074A0007A018F3F11F580917901833009F09EC0F8
:1074B00081E080936F0180917A01E0917E01F091EB
:1074C0007F01309709F477C08130D1F480917C013D
:1074D00090917D0198278927982790936E0180933A
:1074E0006D010EC0853009F49CC08AE080930101D3
:1074F00083E0809372018091EB0080628093EB00C7
:107500000F900F900F90DF91CF911F91FF90EF9010
:10751000DF90CF900895843031F260F48130E1F053
:10752000833071F780917901982F9D7F49F540DE76
:1075300089E023C0853009F474C0863009F7809152
:1075400079018330E9F680917A018111D9CF809158
:107550007B0180937101D4CF10917901123080F6B4
:1075600027DE111109C06091760170917701209199
:107570007101822F90E051DF85E080930101C0CF3F
:10758000813009F0BDCFF0E0E0E084918F3F69F0F9
:1075900010927101F0937701E09376018AE0809375
:1075A000010185E080937201ABCF3196E11520E7B0
:1075B000F20759F7A5CF811111C082E49CED909399
:1075C0008A018093890188E19CE00FB6F894A89520
:1075D000809360000FBE9093600092CF859194914C
:1075E000019609F08DCF109200018ACF811188CFCA
:1075F00080917A018F3F09F083CFC12CD12C760185
:10760000C701B6010ADF80E8C80ED11CE11CF11CDD
:10761000C11420E7D206E104F10491F7109273013E
:107620006FCF8091020190910301A09104018983A1
:107630009A83AB83E0917A0180917901811109C02D
:10764000E33080F4EC0FFD2FF11D818180937001F8
:1076500057CF813009F054CFE13379F040F488E519
:10766000E033A1F38AE08093010188E09BCFE0360C
:1076700031F087E8E13651F3F5CF8EE1E7CF85E9C8
:10768000E5CF1F921FB61F921124EF93FF93EFE1F6
:10769000F0E010821082FF91EF911F901FBE1F90AB
:1076A000189500D000D000D00F92CDB7DEB784B7C8
:1076B000877F84BF0FB6F894A89580916000886199
:1076C00080936000109260000FBE80E890E00FB6DB
:1076D000F89480936100909361000FBE21E025BF74
:1076E00082E085BF559A5D9A819A8091D8008F7EFD
:1076F0008093D8008091D70081608093D70084E088
:1077000082BF20936C018091D8008E7F8093D80037
:107710001092E2001092DA001092E1008091D800FD
:107720008F778093D8008091D80080688093D800AC
:107730008091D8008F7D8093D80019BC1EBA10921A
:1077400088018091E0008B7F8093E0008091D800D9
:1077500081608093D8008091EB0081608093EB0082
:107760001092ED001092EC0082E28093ED00809187
:10777000EE008091E1008E7F8093E1008091E20035
:1077800081608093E2008091E20088608093E20053
:107790008091E0008E7F8093E0008091D80080612E
:1077A0008093D80032DD31E030936F0083E0809326
:1077B000810081B181B981B181B97894312C212CBA
:1077C000D9C2853009F4D3C108F4C8C1863009F0A4
:1077D0000BC38091E800877F8093E80082E080936C
:1077E0000101C3C18091E800877F8093E800809108
:1077F0006F01882319F03BDE10926F0180917E01AA
:1078000090917F010097B9F480910101853049F48E
:1078100080917E0190917F01892BA9F532E0309310
:1078200001018091E8008B7F8093E8009EC12EB318
:10783000222309F4D9C22091E80022FFF8CF209139
:10784000F10020937801019790937F0180937E014E
:10785000E9E7F1E09091F3008091F200892B89F043
:107860008091F100819380917E0190917F01019739
:1078700090937F0180937E012EE731E02E173F0722
:1078800049F7F5DDC1CF8AE1A7DC009176011091BF
:107890007701802F8F71A0DC809174019091750128
:1078A0000196801B910B9F838E83809179018111BA
:1078B0007EC0EE81FF81F695E795FF83EE83680138
:1078C00080917101E82EF12C0B83DC828D830F2DCA
:1078D00010E02E813F81232B59F480917401909107
:1078E0007501909377018093760180E175DC99CFE3
:1078F0009091F3008091F200892B59F12E813F8104
:10790000215031093F832E834091F1005091F100C5
:10791000C701B6014BDD1F5F2601370132E0430E80
:10792000511C611C711C730162011034F9F46B81EC
:107930007C818D81902F47DDEE81FF81EF2B49F215
:10794000C301B2016ADD10E04B825C826D82072DBB
:10795000C0CF8091E8008B7F8093E8008091E800A1
:1079600082FDCCCF8EB38111F9CF3EC28E819F8133
:10797000892B09F0AECFDBCF9091F3008091F2001C
:10798000892BD1F08E819F8101979F838E83609197
:10799000F100809176019091770198D280917601E3
:1079A0009091770101969093770180937601EE8113
:1079B000FF81EF2B09F799CF8091E8008B7F8093AF
:1079C000E8008091E80082FDDDCF8EB38111F9CF10
:1079D0000BC28091E800877F8093E8008091E800E7
:1079E00080FF13C0809101018930B1F08A3089F4A1
:1079F00080917901813069F49091760180917701CD
:107A00009093F1008093F10038C08EB38111E6CFDE
:107A1000EBC180917001F6CF809176019091770152
:107A200020917401309175012F5F3F4F281B390B56
:107A30003F832E8320917901211143C0EE81FF8184
:107A4000F695E795FF83EE834C0180917101A82E96
:107A5000B12C2E813F81215031093F832E832F3F4E
:107A60003F4F79F480917401909175019093770163
:107A70008093760132E0309301018091E8008E7F9F
:107A8000D3CE9091F3008091F200809769F0F401D9
:107A9000859194918093F1009093F100F2E08F0E24
:107AA000911CA11CB11CD5CF8091E8008E7F8093E2
:107AB000E8008091E80080FDEACF8EB38111F9CF14
:107AC00093C12230B9F62E813F81232B99F29091F8
:107AD000F3008091F2008097B1F08091760190914F
:107AE0007701ECD18093F10080917601909177013C
:107AF00001969093770180937601EE81FF81319713
:107B0000FF83EE83E0CF8091E8008E7F8093E800D2
:107B10008091E80080FDE1CF8EB38111F9CF64C17F
:107B20008091E800877F8093E8008091E80080FFE3
:107B300011C0809172018093F1001092F1001092B7
:107B4000F1001092F100809101018093F1001092F8
:107B5000F10093CF8EB38111E8CF46C18091E80048
:107B6000877F8093E8001092720105DB3DC1809110
:107B7000E800877F8093E8008091E80080FF03C0E1
:107B8000809101013FCF8EB38111F6CF2DC1983086
:107B900009F4D5C0993009F03AC1811138C130914A
:107BA00082013B83323008F032C18091E800877F48
:107BB0008093E80030938801DEDA8B81882309F412
:107BC000CBC094E09EBB23C18D7F803809F01FC1DC
:107BD0008091E800877F8093E8001092F100109276
:107BE000F1008091E8008E7F8093E800C4DA0FC135
:107BF00081110DC1909182019F779B838091E30059
:107C00008078892B8093E3008091E800877F8093C0
:107C1000E800B1DA8091E80080FFFCCF8091E300BA
:107C200080688093E300EB8182E0E11183E08EBB0A
:107C3000EEC08058823008F0EAC080918201F09155
:107C40008301F9831A8229813A8122303105E1F1D9
:107C50002330310549F02130310509F0D8C022E147
:107C600030E0EAE5F1E00BC0882399F18130B1F111
:107C700020E230E0E5E0F1E0823009F0C8C0809118
:107C8000E800877F8093E8008091860190918701CA
:107C90002817390708F4C90140E0009721F5411180
:107CA00022C08091E80082FD09C08EB3882331F0A4
:107CB000853021F08091E80083FFF3CF8091E800C8
:107CC0008B7F8093E800A3C02BE130E0EFE3F1E08D
:107CD000D6CF24E030E0E7E2F1E0D1CF22E130E09E
:107CE000EBE2F1E0CCCF2EB3222341F3253031F388
:107CF0002091E80023FDE2CF2091E80022FDD1CFC2
:107D00002091E80020FFC9CF3091F3002091F200CC
:107D1000009719F02032310558F041E0203231054A
:107D200009F040E02091E8002E7F2093E800B5CFD5
:107D300041914093F10001972F5F3F4FE9CF803889
:107D400009F065C08091E800877F8093E80080910A
:107D500088018093F10045CF8091E30087FD02C048
:107D600081E065CF84E063CF882309F427CD9FEFBE
:107D7000291A390A80910001811105C080916F0193
:107D8000882309F462C08EB3882309F44EC0809121
:107D9000E80083FF4AC080E891E02091F100FC01F7
:107DA0002193CF01F1E088389F07B9F780918001D6
:107DB0008F778132C9F410921F0010921F008091BA
:107DC00086019091870190937F0180937E0180913D
:107DD0008101833009F4A4CE08F0F3CC813009F49A
:107DE00001CD823009F4F5CD8091E80083FF0FC00A
:107DF0008091800190918101963009F41ACF08F0AA
:107E0000C6CE992309F4E0CE953009F4F1CE8091E5
:107E1000E80083FF0AC08091E800877F8093E80034
:107E20008091EB0080628093EB008FB18270909123
:107E30000101923009F098CFE9E82E16E3E13E0601
:107E400008F492CF882309F4B9CC8FE99FE0019719
:107E5000F1F700C000008091D8008E7F8093D80099
:107E60001092E2001092DA001092E1008091E0009E
:107E700081608093E0008091D8008F778093D80054
:107E800019BC8091D7008E7F8093D7008091D80055
:107E90008F7E8093D80010926C01B7D910926F003A
:107EA0001092810081E085BF15BE11BA10BA1BB8CF
:107EB0001AB8E0916D01F0916E010995F999FECF24
:107EC00092BD81BDF89A992780B50895262FF9991A
:107ED000FECF92BD81BDF89A019700B4021639F029
:107EE0001FBA20BD0FB6F894FA9AF99A0FBE0895FA
:047EF000F894FFCF34
:107EF400010220DCFB20036D00700061006400209F
:107F04000042006F006F0074006C006F0061006439
:107F14000065007200000004030904120343006FAB
:107F2400005300610069006C0065007200000009E4
:107F3400021B0001010080320904000000FE01025E
:107F4400000921030000000C1001120110010000BF
:0C7F54000020EB03F42F360901020001AD
:107FA0003CCA11CA03CAFCC9F5C9EDC9DBC90895A9
:087FB000089508950895089555
:107FE000DFCFDFCFDFCFDFCFDFCFDFCFDFCFDFCF21
:087FF000DFCFDFCFDFCFDFCFD1
:087FF8000070000010DFFBDC4B
:040000030000700089
:00000001FF
