:100000000C946B010C94A3010C94A3010C94440C6C
:100010000C94A3010C94A3010C94A3010C94A301D0
:100020000C94A3010C94A3010C9491250C946526C7
:100030000C945E1F0C94A3010C94A3010C94A301D7
:100040000C94A3010C94A3010C94A3010C94A301A0
:100050000C94A3010C9401200C94A3010C94A30113
:100060000C94A3010C94A3010C94A3010C94A30180
:100070000C94A3010C94A3010C94A3010C94A30170
:100080000C94A3010C94A3010C94A3010C94A30160
:100090000C94A3010C94A3010C94A3010C94A30150
:1000A0000C94A3010C94A3010C94A3012900B200A9
:1000B000B30006014C002A002C005200280050001A
:1000C00051004F0044454255473A206469736162CC
:1000D0006C65642E0A0044454255473A20656E61BE
:1000E000626C65642E0A000A0025303258006C6587
:1000F000645F7461736B3A20004F6E6573686F7450
:100100003A206163746976653A2025640A000A0022
:1001100025303862003A200025303258000A722F0C
:10012000632030313233343536370A000A00253047
:10013000325820006B6579626F6172645F7265701E
:100140006F72743A200073757370656E64696E67C0
:10015000206B6579626F6172640D0A005B575D0008
:100160005B535D005B525D005B445D005B435D0083
:100170000A036D0070006100640000001203430078
:100180006F005300610069006C00650072000000A0
:100190000403090409029800050100A0FA090400FB
:1001A000000103010100092111010001224400079F
:1001B0000581030800010904010001030000000992
:1001C00021110100012232000705820320000109EC
:1001D0000402000203000000092111010001222293
:1001E0000007058303200001070503032000010821
:1001F0000B030202020100090403000102020100D4
:100200000524001001042402020524060304070546
:1002100084030800FF09040400020A000000070527
:1002200006021000050705850210000512010002F4
:10023000EF020108EDFEAD000301010200010631ED
:10024000FF0974A1010975150026FF0095207508A6
:1002500081020976150026FF00952075089102C0DD
:1002600005010980A101850319012AB7001501269E
:10027000B700950175108100C0050C0901A1018529
:100280000419012AA002150126A00295017510810A
:1002900000C005010906A101050719E029E71500BD
:1002A00025019508750181029501750881010507F1
:1002B000190029FF150026FF009506750881000525
:1002C000081901290515002501950575019102956B
:1002D0000175039101C011241FBECFEFDAE0DEBF2C
:1002E000CDBF04B603FE18C080916B0390916C03E0
:1002F000A0916D03B0916E038730904BA740B04B37
:1003000059F410926B0310926C0310926D031092CB
:100310006E03E0E0F8E3099511E0A0E0B1E0ECED58
:10032000F5E502C005900D92A63CB107D9F723E090
:10033000A6ECB1E001C01D92AB36B207E1F70E9416
:10034000D51B0C94AD2A0C940000FF93EF93E09121
:10035000C601F091C701309709F00995EF91FF911F
:100360000895FC018591803011F0EFDFFBCF0895F7
:10037000FF27E0E230E247FF0CC0419597FF09C03C
:10038000EDE26095709580959095611D711D811DC0
:10039000911D27FF02C0219530E350E2AA27660F86
:1003A000771F881F991FAA1FA41710F0A41B63951D
:1003B0005A95A9F7AA3008F0A95FA05DAF93F3950D
:1003C000611571058105910541F7ED3211F4EF9347
:1003D000F395F21718F43F93F395FBCF8F91B5DFA8
:1003E000FA95E1F70895E991F9918591803021F02E
:1003F000853219F0AADFF9CF089520E0E8945591ED
:100400005532C1F3503311F4689455915A3348F47E
:10041000505390F3220F022E220F220F200D250F92
:10042000F4CF0EF4219589919991533619F35337EE
:1004300029F1533559F1BC0188279927E8945C3696
:1004400021F48991999168945591543639F446EF85
:100450007EF077FF0DC08FEF9FEF0AC055374AE05F
:1004600039F0583540E121F0523642E009F0089564
:10047000FF93EF937DDFEF91FF91B7CFFF93EF9362
:10048000FC0181918030B9F360DFFBCFFF93EF93E4
:1004900068DFF1CFDF93CF93CDB7DEB72596A3DF2B
:1004A000CF91DF910895A1E0B0E0E9E5F2E00C948E
:1004B0001C2A698305E010E021E030E0AE014F5FC7
:1004C0005F4F682F82E70E94AF0921E0892B09F076
:1004D00020E0822F2196E4E00C94382A0F931F939A
:1004E000AB0105E010E021E030E0682F82E70E94D8
:1004F000D60921E0892B09F020E0822F1F910F916E
:1005000008950F931F93CF93DF93EA0105E010E066
:100510009A01AB01682F82E70E94D609892B11F05E
:10052000D0E0C0E0CE01DF91CF911F910F910895EF
:10053000A1E0B0E0EEE9F2E00C941E2ABE016F5F8C
:100540007F4F80E80E946E02882329F089812196DE
:10055000E2E00C943A2A8FEFFACFCF93DF93D82FB3
:10056000C62F0E9498028F3F99F0C170D730C0F417
:1005700021E030E001C0220FDA95EAF7CC2369F0E0
:10058000822B682F80E80E94530291E0811101C004
:1005900090E0892FDF91CF91089520958223F1CFAC
:1005A000D73079F780E0CC2361F38FE7EACFA1E081
:1005B000B0E0EDEDF2E00C941E2ABE016F5F7F4FBC
:1005C0008FEA0E946E02882331F089818170219622
:1005D000E2E00C943A2A8FEFFACF61E080E00E94CB
:1005E000AD0291E0811101C090E0892F0895A1E052
:1005F000B0E0EDEFF2E00C941C2A8C01FC011182BA
:100600001082BE016F5F7F4F84E90E946E028111EC
:1006100005C080E02196E4E00C94382A898190E0BE
:10062000F80191838083BE016F5F7F4F85E90E944F
:100630006E02882371F3898190E0982F8827F80152
:1006400020813181820F931F9183808381E0E2CFEB
:1006500010925802109259021092D7011092D601AE
:100660001092D5011092D4011092D3011092D201B0
:100670001092D1011092D0011092CF011092CE01B0
:100680001092CD011092CC011092CB011092CA01B0
:100690001092C9011092C8010895B0E0A0E0E3E50E
:1006A000F3E00C94152AE0915902E53010F480E053
:1006B000EFC08FEF8E0F803208F0EFC098EDE92E7B
:1006C00091E0F92EF0E0AF0148525E4FD7014A1792
:1006D0005B0769F33D913B30D0F35F966C915F9778
:1006E0006B30A8F3DF960C91DF970B3080F3ED01B0
:1006F000C15ADF4F98819B3050F3E852FE4FDF0123
:100700002E912B3058F0478D4B3040F0C7ADCB3099
:1007100028F0E15AFF4F80818B3040F4FD01EA164A
:10072000FB0669F780E0C0E040E020E0E32FF0E066
:10073000A62EB12C10E0C92ED12C30E050E0D0E034
:10074000E82EF12CB901641B750B84E6982E969E59
:10075000C001979E900D1124B901640F751F0E946E
:10076000B3299B01AF014A195B09949EC001959E74
:10077000900D1124BF016A0D7B1D0E94B329261B19
:10078000370BAE014E195F09949EC001959E900DE6
:100790001124BE016E0D7F1D0E94B329FB01A8012B
:1007A0004C195D09949EC001959E900D1124B801CD
:1007B0006C0D7D1D0E94B329CF01861B970BBC01D8
:1007C0004091D6015091D701420F531F5093D7014A
:1007D0004093D6018091D4019091D501860F971F47
:1007E0009093D5018093D401423351050CF45EC03F
:1007F00041E050E05093D3014093D2018233910500
:100800000CF45FC081E090E09093D1018093D0011F
:10081000A9014D5E5F4F8091D2019091D301E0918B
:10082000D001F091D1018E2B9F2B892B09F068C04C
:100830004732510508F03BCFCB014396879708F02C
:1008400036CFC901862B972B892B09F045C08091A3
:10085000CE019091CF0101969093CF018093CE016C
:100860008091CE019091CF010A970CF420CF809116
:10087000CC019091CD0102970CF419CF232BB1F547
:10088000672BE1F581E090E09093CB018093CA0162
:10089000CDB7DEB7EBE00C94312A80E0C0E040E059
:1008A00020E090E000E060E030E040CF4F3C5F4F60
:1008B0001CF44FEF5FEF9ECF1092D3011092D20144
:1008C0009DCF8F3C9F4F1CF48FEF9FEF9DCF1092D9
:1008D000D1011092D0019CCF8091CC019091CD019B
:1008E00001969093CD018093CC01BACF672B31F064
:1008F00082E090E09093CB018093CA0181E0C8CF61
:100900004732510508F0D3CECB014396879708F0C4
:10091000CECE262B372B232B49F48091CE019091FC
:10092000CF0101969093CF018093CE018091CE01AB
:100930009091CF010A970CF4BACE1092D301109285
:10094000D2011092D1011092D0011092D7011092D1
:10095000D6011092D5011092D401A9CE8091CA017E
:100960009091CB018130910541F485E090E0909326
:10097000C9018093C80181E00895029719F486E0C7
:1009800090E0F5CF8091D2019091D3018F3F9807ED
:1009900049F48091D0019091D101009731F583E025
:1009A00090E0E5CF8130910549F48091D00190919C
:1009B000D101009799F584E090E0D9CF892B09F017
:1009C00079C08091D0019091D1018130910519F4C5
:1009D00082E090E0CCCF019609F06CC081E090E01D
:1009E0009093C9018093C80108958130910581F5E4
:1009F0002091D6013091D70137FF03C03195219561
:100A000031098091D4019091D50197FF03C0919550
:100A1000819591098217930714F2DACF8F3F9807D7
:100A200081F52091D6013091D70137FF03C0319570
:100A3000219531098091D4019091D50197FF03C090
:100A4000919581959109821793070CF4B4CFC6CF85
:100A5000019681F52091D6013091D70137FF03C06F
:100A60003195219531098091D4019091D50197FF5D
:100A700003C0919581959109821793070CF48FCF4C
:100A8000ADCF0197B9F42091D6013091D70137FF4E
:100A900003C03195219531098091D4019091D50100
:100AA00097FF03C0919581959109821793070CF4E4
:100AB00082CF8ECF80E00895A2E8B0E0E2E6F5E0D4
:100AC0000C941A2ACE57DF4F1882C258D0400E9489
:100AD000D702811108C010E000E0C801CE57DF4FF7
:100AE000E6E00C94362A0E9498028174A1F30FEF7D
:100AF00016E721E0015010402040E1F700C000005F
:100B0000BE016F577F4F8FEA0E946E02811103C0B2
:100B10000FEF10E0E2CFCF57DF4F8881C158D040B0
:100B200080FF5CC0BE016E577F4F8EEA0E946E024E
:100B3000882371F3CE57DF4F4881C258D0404423F9
:100B4000B1F284E0489FA0011124BE016F5F7F4F86
:100B50008CEF0E948102843050F220915802309133
:100B60005902DE011196E22F50E040E0992761E042
:100B70006E0F48175907ACF0039696958795969592
:100B80008795280F20935802830F809359020E9463
:100B90004D0381110E94AE04109258021092590226
:100BA000A6CFF0E08F0108521E4F78017C91F8012A
:100BB000708311967C91119770A3005C1F4F129661
:100BC0007C911297F8017083B09613967C911397DD
:100BD00070834C5F5F4F1496E62FC9CFFFEF06E797
:100BE00011E0F15000401040E1F700C000000E9409
:100BF000AE040091C8011091C9010E9428036DCF75
:100C0000A1E0B0E0E6E0F6E00C941D2A182FBE014A
:100C10006F5F7F4F8FE80E946E02982F882379F0D4
:100C200069816F731295110F110F107C612B69830D
:100C30008FE80E94530291E0811101C090E0892F5A
:100C40002196E3E00C94392AA1E0B0E0EAE2F6E074
:100C50000C941D2A182FBE016F5F7F4F8FE80E94F2
:100C60006E02982F882371F0110F110F6981637F35
:100C70001C70612B69838FE80E94530291E08111FF
:100C800001C090E0892F2196E3E00C94392AA1E07D
:100C9000B0E0EDE4F6E00C941D2A182FBE016F5F62
:100CA0007F4F8FE80E946E02982F882361F0698140
:100CB0006C7F1370612B69838FE80E94530291E06F
:100CC000811101C090E0892F2196E3E00C94392A2C
:100CD000A1E0B0E0EEE6F6E00C941D2A182FBE016C
:100CE0006F5F7F4F80E90E946E02982F882371F01A
:100CF0001295107F69816F7C1073612B698380E985
:100D00000E94530291E0811101C090E0892F219649
:100D1000E3E00C94392A682F80EA0E94530291E0A4
:100D2000811101C090E0892F0895682F81EA0E9407
:100D3000530291E0811101C090E0892F0895A1E054
:100D4000B0E0E5EAF6E00C941D2A182FBE016F5FB3
:100D50007F4F83EA0E946E02982F882379F01295C4
:100D6000110F107E69816F791076612B698383EA98
:100D70000E94530291E0811101C090E0892F2196D9
:100D8000E3E00C94392AA1E0B0E0E9ECF6E00C9441
:100D90001D2A182FBE016F5F7F4F83EA0E946E02EB
:100DA000982F882379F0110F110F110F6981677E39
:100DB0001871612B698383EA0E94530291E08111CB
:100DC00001C090E0892F2196E3E00C94392AA1E03C
:100DD000B0E0EDEEF6E00C941D2A182FBE016F5F17
:100DE0007F4F83EA0E946E02982F882361F0698109
:100DF000687F1770612B698383EA0E94530291E038
:100E0000811101C090E0892F2196E3E00C94392AEA
:100E1000CF93C92F682F84E80E945302982F88230C
:100E200041F06C2F85E80E94530291E0811101C0CE
:100E300090E0892FCF910895CF93C92F682F86E82E
:100E40000E945302982F882341F06C2F87E80E945C
:100E5000530291E0811101C090E0892FCF91089554
:100E6000682F89E80E94530291E0811101C090E04F
:100E7000892F0895682F8BE80E94530291E0811119
:100E800001C090E0892F0895A1E0B0E0EAE4F7E026
:100E90000C941D2A182FBE016F5F7F4F80E80E94BF
:100EA0006E02982F882371F01295107F69816F7EF2
:100EB0001071612B698380E80E94530291E08111D7
:100EC00001C090E0892F2196E3E00C94392ACF935A
:100ED000C82F80E00E944706811102C090E013C035
:100EE00081E0C11101C080E00E9444078823B1F372
:100EF0000E94ED02882391F361E081E00E94AD023F
:100F000091E0882359F3892FCF910895A1E0B0E0B3
:100F1000ECE8F7E00C941D2A182FBE016F5F7F4F9D
:100F20008BEA0E946E02982F882369F0110F698165
:100F30006D7F1270612B69838BEA0E94530291E0EE
:100F4000811101C090E0892F2196E3E00C94392AA9
:100F50000E94C90860E087E00E94AD02811102C0D2
:100F600090E0B6C06BED81E80E9453028823C1F384
:100F700066EF83E80E945302882391F367E88EE8C6
:100F80000E945302882361F360E08DE90E945302BE
:100F9000882331F360E08EE90E945302882301F335
:100FA00060E68DE80E9453028823D1F280E00E941F
:100FB00000068823A9F280E00E942406882381F29B
:100FC00080E00E944706882359F280E00E943007A3
:100FD000882331F282E30E943A07882309F28FEFD7
:100FE0009FEF0E940807882309F4BACF90E080E0C1
:100FF0000E941C07882309F4B3CF61E18CE80E94AA
:101000005302882309F4ACCF61E080E90E945302C7
:10101000882309F4A5CF60E08FE90E94530288235A
:1010200009F49ECF8EE10E948B06882309F498CFA5
:101030008FE00E949506882309F492CF60E482EA4B
:101040000E945302882309F48BCF80E00E949F0600
:10105000882309F485CF80E00E94C306882309F421
:101060007FCF81E00E94E706882309F479CF60E012
:1010700084EA0E945302882309F472CF60E085EA73
:101080000E945302882309F46BCF60E087EA0E9434
:101090005302882309F464CF60E089EA0E94530276
:1010A000882309F45DCF69EC86EA0E945302882305
:1010B00009F456CF60E08AEA0E945302882309F4BB
:1010C0004FCF80E00E94860791E0882309F448CF43
:1010D000892F0895A1E0B0E0E0E7F8E00C941D2A24
:1010E000182FBE016F5F7F4F8BEA0E946E02982F10
:1010F000882361F069816E7F1170612B69838BEAAF
:101100000E94530291E0811101C090E0892F219645
:10111000E3E00C94392ACF93C82F0E9428036FEF85
:1011200083E80E945302811102C090E02FC069E859
:101130008EE80E9453028823C1F383E00E94680670
:10114000882399F381E0C11101C080E00E948607E5
:10115000882359F381E00E946A08882331F30E94B2
:10116000ED02882311F361E083E00E94AD02882341
:10117000E1F261E082E00E94AD028823B1F261E019
:1011800086E00E94AD0291E0882379F2892FCF9109
:1011900008951092B9008CE08093B8000895B0E0F3
:1011A000A0E0E5EDF8E00C94152AB82EEB010E94C2
:1011B000BE1F6C01EE24E394F12CC431D10560F024
:1011C00025E0E22EF12CCF3FDC0731F0CE0164E1C7
:1011D00070E00E949F297B0184EAA82E94E8992E52
:1011E0001092BC00A092BC000E94BE1F8C01809196
:1011F000BC0087FF0DC08091B900887F8830F9F06E
:101200008091B900887F8031D1F00FEF1FEF08C0C7
:10121000C8010E94D61FE816F90648F70EEF1FEF27
:10122000CF3FDC07E9F2C6010E94D61FC817D907D5
:10123000B8F6C801CDB7DEB7EBE00C94312AB09216
:10124000BB009092BC000E94BE1F8C018091BC002C
:1012500087FF0AC08091B900887F883111F08034FF
:10126000A1F610E000E0E5CFC8010E94D61FE81605
:10127000F90660F7D3CF0F931F93CF93DF93EB0162
:101280008093BB0084E88093BC000E94BE1F8C0149
:101290008091BC0087FF11C02091B900287F81E0B8
:1012A00090E0283211F490E080E0919581959109C9
:1012B000DF91CF911F910F910895CF3FDC0741F34C
:1012C000C8010E94D61FC817D90710F78EEF9FEFED
:1012D000EFCF0F931F93CF93DF93EC0184EC8093B8
:1012E000BC000E94BE1F8C018091BC0087FF08C01B
:1012F0008091BB0090E0DF91CF911F910F910895F5
:10130000CF3FDC0789F3C8010E94D61FC817D90751
:1013100058F78EEF9FEFEFCF0F931F93CF93DF938D
:10132000EC0184E88093BC000E94BE1F8C01809178
:10133000BC0087FF08C08091BB0090E0DF91CF9197
:101340001F910F910895CF3FDC0789F3C8010E94D8
:10135000D61FC817D90758F78EEF9FEFEFCFB0E031
:10136000A0E0E5EBF9E00C94182AC62F6A01790198
:10137000B8010E94CF0897FD0CC0B8018C2F0E94C5
:101380003B09E601EC0CFD1CCE15DF0511F097FFC3
:1013900008C024E92093BC00CDB7DEB7E8E00C9488
:1013A000342AB80189910E943B09EECFB0E0A0E059
:1013B000ECEDF9E00C94182AF82EE62EEA0169010A
:1013C000B8010E94CF0897FD15C0B8018E2D0E946C
:1013D0003B0997FD0FC0B8018F2D81600E94CF0897
:1013E000F12CE12C21E0C21AD108EC14FD04E0F448
:1013F00097FF0DC024E92093BC001816190614F4B9
:1014000090E080E0CDB7DEB7E8E00C94342AC80164
:101410000E94690997FD04C0FE01EE0DFF1D808347
:101420002FEFE21AF20AE1CF97FDE4CFC8010E9444
:101430008C0997FDDFCFCC0DDD1D8883DBCF859A2E
:10144000229A219A209A239A869A6E9A879A579A74
:10145000849A3E9A3F9A6A9A08958D9A2A9A299A6E
:10146000289A2B9A8E9A769A8F9A5F9A8C9A469A95
:10147000479A729A08958D982A98299828982B98B7
:101480008E9876988F985F988C984698479872981F
:1014900008958BB180588BB988B190E4892788B9B9
:1014A00088B1805888B98EB194E089278EB90895A3
:1014B00010927C0010927B0090917C0040E4849F0D
:1014C00090011124922B90937C0090917C00862FA8
:1014D0008F71892B80937C0080917B006072682BD8
:1014E00060937B008FE39FE10197F1F700C000005C
:1014F00080917A00876880937A0080917A00806476
:1015000080937A0080917A0086FDFCCF80917A00EA
:10151000806480937A0080917A0086FDFCCF809170
:101520007800909179000895823E09F493C078F490
:10153000803E81F1F0F58A3A31F1E0916602F0E007
:10154000E25BFC4F808381E0809366020895843ED5
:1015500009F4B4C008F4A0C0853E09F4C1C0863EB9
:1015600061F780916C0290916D0290935D0280937F
:101570005C0286EE0E947E2280915C020E947E22A6
:1015800080915D0210C01092660210924E0310927C
:101590004F03089580914E038093720280EE0E9463
:1015A0007E22809172020E947E228AE00E947E2228
:1015B000089580914F0380FF33C08D9A81FF32C020
:1015C0002A9A82FF31C0299A83FF30C0289A84FF6B
:1015D0002FC02B9A85FF2EC08E9A86FF2DC0769A3B
:1015E00080914E0380FF2AC08F9A80914E0381FF25
:1015F00027C05F9A80914E0382FF24C08C9A80910D
:101600004E0383FF21C0469A80914E0384FF1EC083
:10161000479A80914E0385FF1BC0729A81EEC3CF1B
:101620008D98CCCF2A98CDCF2998CECF2898CFCFE0
:101630002B98D0CF8E98D1CF7698D2CF8F98D5CF08
:101640005F98D8CF8C98DBCF4698DECF4798E1CF14
:101650007298E4CF80916E0290916F02A091700217
:10166000B09171028093620290936302A09364022E
:10167000B093650282EE0E947E22809162020E94F7
:101680007E22809163020E947E22809164020E94E9
:101690007E228091650287CF8091680290916902D5
:1016A000909361028093600283EE0E947E2280917B
:1016B00060020E947E228091610275CF80916A0251
:1016C00090916B0290935F0280935E0284EE0E9481
:1016D0007E2280915E020E947E2280915F0263CF13
:1016E00085EE0E947E2280E05ECF811106C08AEAEC
:1016F000611101C089EA0E948A0E80E008950E946B
:101700001F0A8FE39CE90197F1F700C000000E94D7
:101710002D0A9FEF21EE84E0915020408040E1F7B8
:1017200000C000000E943B0A9FEF29E688E191502B
:1017300020408040E1F700C000000E942D0A9FEF8A
:1017400021EE84E0915020408040E1F700C000008D
:101750000E943B0A9FEF29E688E19150204080409B
:10176000E1F700C000000E942D0A9FEF21EE84E007
:10177000915020408040E1F700C000000E943B0AE9
:1017800052985A98EA9AE9E6F0E080818062808374
:1017900078940E94A8078FE99FE00197F1F700C0B5
:1017A000000080E00E94670781E00E948B088FE9BB
:1017B0009FE00197F1F700C00000089560916E026C
:1017C00070916F0280917002909171020E94E51FEA
:1017D000653671058105910508F44FC00E94CA1F46
:1017E00060936E0270936F02809370029093710207
:1017F0006EE181E00E94580A9C0150E040E060E008
:1018000070E381E190E00E94E9293093690220931E
:1018100068028CE692E00E94F70267E283E00E9491
:10182000580A8351914090936B0280936A02809191
:101830006702813011F5F8940E94D7028130E1F4FB
:101840000E945C058330910591F044F4813091054C
:10185000B9F00297B9F00E943B0A0CC0853091059F
:10186000D1F364F00697B9F70E94490A03C08FE4E8
:101870000E948A0E109267027894089580E5F8CF4E
:1018800082E5F6CF81E5F4CF8F9381E08093670204
:101890008F911895811112C0643080F4433070F438
:1018A000E42FF0E083E0689FE00DF11D1124EE0FBE
:1018B000FF1FE455FF4F85919491089581E090E0DA
:1018C00008950E944A0C089581E008950E94640CD6
:1018D000089581E008950E94640C08950E946B0CA5
:1018E000089508950E94710C0895A6E0B0E0EBE71A
:1018F000FCE00C941D2A49835A839E833091780220
:1019000089819A8131111AC03E81332399F02223B3
:1019100089F00E942D12182F682F89819A810E94C8
:10192000091269817A81812F0E9432192696E3E09B
:101930000C94392A0E941B12182FF3CF0E942D12EB
:1019400069817A81F1CFFC01262F4081518162812A
:101950007381848195810E94750C0895CF93DF93E4
:10196000EC0161E00E94A30CBE010E94660CDF91B5
:10197000CF910895CF93DF93EC0160E00E94A30C18
:10198000BE010E94720CDF91CF91089508950E94CC
:10199000DE100E94C60C2FEF84E39CE021508040B3
:1019A0009040E1F700C0000008950E94C70C0E941B
:1019B000252008950E94C70C0E94492008950F9386
:1019C0001F93CF93DF938C0161E00E94A30CEC0185
:1019D000B8010E946E0C811106C080E0DF91CF91AA
:1019E0001F910F910895B801CE010E94E01D882338
:1019F000A1F3B801CE010E94E71B882371F3B8015F
:101A0000CE010E94521D882341F3F801858188236D
:101A100069F0C330FCE7DF0781F160F4C130ECE727
:101A2000DE0769F1C0F4C115DC4791F0C8010E94DE
:101A3000690CD4CFCB35ECE7DE0739F1CC35FCE7C8
:101A4000DF0701F1CA35DC4789F70E947616EECF31
:101A50000E94D50CC2CF9091ED02892F8E7F90FF0E
:101A600081608093ED0280FF05C086ED90E00E94CA
:101A7000B101B3CF84EC90E0FACF0E947E160E94B1
:101A8000DA0CABCF0E946C16D1CF0E947A16CECF63
:101A90000E943B1F0E94870D08950E948B0D0E949B
:101AA000401F0895829590E09C01220F331F220F62
:101AB000331F2C7C95958795959587958373282B57
:101AC00030E0C901880F991F8A7A359527952575C9
:101AD000822B0895089581E008950895CF93DF93B0
:101AE000D82F0E946B0DC82F882319F08D2F0E94CC
:101AF0006D0D8C2FDF91CF9108950895CF93C82F4E
:101B00000E946A0D8C2F0E946E0DCF91089580E087
:101B10000E947E0D08950E94291E0E947E0D089548
:101B2000CF930E94291EC82F809173028C1789F1D0
:101B3000C09373020E94CA1F60937402709375026F
:101B400080937602909377028091ED0282FF1EC00F
:101B500080FF1CC08EEE90E00E94B1018091ED02EA
:101B600080FF14C01F92CF9389EE90E09F938F93D4
:101B70000E944A028091ED020F900F900F900F90FB
:101B800080FF04C087EE90E00E94B1018C2F0E947C
:101B90007E0DCF910895ADE0B0E0E1EDFDE00C9455
:101BA0001E2A488759876A877B878C879D87911172
:101BB0000E9491151F8286E0FE013896DE01119683
:101BC00001900D928A95E1F78D8181110DC02981D7
:101BD0003A814B815C816D817E818F810E94C4142A
:101BE0002D96E2E00C943A2ACE0101960E94AE0CAA
:101BF0008111EDCFF5CFFC012481213021F48081CA
:101C000091810E945F120895CF93C82F8823B9F065
:101C10008CEF8C0F813AA8F46C2F80910001909189
:101C200001010E94D61E882329F08C2F0E94511595
:101C30000E94CA158C2F0E9449150E94CA15CF9187
:101C4000089580E28C0F883048F4C77081E001C0AD
:101C5000880FCA95EAF70E947415EFCFEBE5EC0FF9
:101C6000E33040F4F0E0EC59FE4F808190E00E94B8
:101C70007A1EE5CFC85ACB3110F7EC2FF0E0EE0F0B
:101C8000FF1FE25DFE4F808191810E949F1ED7CF92
:101C9000882339F19CEF980F913A28F40E9451154E
:101CA0000E94CA15089590E2980F983050F48770FA
:101CB00091E001C0990F8A95EAF7892F0E947A1561
:101CC000EFCF9BE5980F933028F490E080E00E94DE
:101CD0007A1E0895885A8B3120F490E080E00E94AB
:101CE0009F1E08951F93CF93DF93182FEB010E943F
:101CF000040E209739F4812F0E94480EDF91CF9176
:101D00001F9108958FE99FE00197F1F700C000004F
:101D10002197EFCF70E060E0893311F460E570E067
:101D20000E94720E0895882321F00E9474150E946B
:101D3000CA150895882321F00E947A150E94CA15B9
:101D40000895B0E0A0E0E7EAFEE00C94172A6C01E9
:101D5000D62FC72FFC011581068102950F700E94B6
:101D60006A15E82E8823E9F0E12E1123D1F08C2F9B
:101D7000807F803451F080E28D0F8830F8F00111BF
:101D800004C08C2F807E8032C9F08091510382FF85
:101D900015C082E00E942D160E946A1591E0E82E7F
:101DA000E926BC2EB2949FE0B922FBE0FB15B8F106
:101DB000EB2DF0E0E155F54D0C94082AE12CF1CF24
:101DC0000C2F0F70C07F11F00295007F112399F046
:101DD000002359F080E28D0F883010F0D11107C038
:101DE000802F0E9474150E94CA158D2F5AC0802F13
:101DF0000E948415F8CF8D2F0E94480E002379F0A1
:101E000080E28D0F883010F0D11104C0802F0E9425
:101E10007A1503C0802F0E948A150E94CA15EB2DE7
:101E2000E850FF0B349720F40E94291E0E947E0D7B
:101E3000EE2089F00E94661580FD0DC0F601158226
:101E40000E9460150E946711C6010E94A9100E949D
:101E500060150E947711CDB7DEB7E9E00C94332A04
:101E60002C2F2F70F22EC07FC03219F0F29480EF29
:101E7000F822DD2341F0D130D1F1112309F444C01F
:101E80000023F1F0B2CF8091510382FD15C01123E0
:101E900059F0FF2029F08F2D0E9474150E94CA1559
:101EA00080E00E94040EBBCF80E00E94480EFF201D
:101EB00009F4B5CF8F2DABCF112369F0011104C008
:101EC0008F2D0E94930EABCF013009F0A8CF8F2D3C
:101ED0000E94A815A4CF0111A2CF8F2D0E949A0EA7
:101EE0008F2D0E94B4158F2D0E94981598CF112325
:101EF00021F0063008F093CFE3CF053008F08FCF04
:101F00008F2D0E949A0E8BCF0023D1F3D93349F441
:101F10003FEF87EE93E0315080409040E1F700C002
:101F200000008D2F0E94480E7ACF8C2F86958695C3
:101F3000837069F0813009F072CF8D2F9C2F9370E0
:101F4000111102C080E090E00E949F1E68CF8D2F8B
:101F50009C2F9370111102C080E090E00E947A1EC5
:101F60005ECF8C2F8370A1F5111159CF4D2F429563
:101F700046954770440F440F2D2F2F7030E0042EEC
:101F800002C0220F331F0A94E2F790E080E0D4FFF2
:101F900009C08FE090E002C0880F991F4A95E2F7D0
:101FA00080959095C695C695C370822B932BC230B1
:101FB00049F058F4C13019F00E94371130CF0E9417
:101FC0002E112DCF0E9440112ACF0E942B1127CF16
:101FD0008695112311F08C2F8170882309F41FCF6F
:101FE0004D2F429546954770440F440F2D2F2F706B
:101FF00030E0042E02C0220F331F0A94E2F790E073
:1020000080E0D4FF09C08FE090E002C0880F991FE4
:102010004A95E2F780959095C695C695C370822B38
:10202000932BC23049F058F4C13019F00E94A2112C
:10203000F6CE0E949911F3CE0E94AB11F0CE0E9411
:102040004F11EDCECF70112329F08C2F0E94671114
:102050008D2F37CF8D2F0E949A0E8C2F0E947711D3
:10206000DECED23F41F160F4D03FB9F0D13F81F0F4
:10207000112309F446C00111B8CE8C2F8F711FC0F7
:10208000D33F01F1D43FA1F78091510382FD24C0D9
:102090008C2F8F71112311F312C0112341F00530E1
:1020A00008F0BDCE8C2F8F710E948911B8CE0630FA
:1020B00008F0B5CEF7CF8C2F8F711111CFCF0E94C2
:1020C0006711ADCE112329F08C2F8F710E945B1107
:1020D000A6CE0E945611A3CE112349F0CF718C2FAA
:1020E0000E94671163E08C2F0E940F1698CE81E04A
:1020F0000E942D16023008F492CE82E00E942D1626
:102100008ECE002359F0D93309F00BCFEFEFF7EE65
:1021100023E0E150F0402040E1F701CF8C2F8F7198
:102120009DCF0F931F93CF93DF93EC01688179814B
:102130008D810E946A128C010E94B4110E942A11A2
:10214000B801CE010E94A10EDF91CF911F910F9196
:102150000895CF93DF93EC018C81882399F0CE0111
:102160000E94DF0C811111C00E946A15882351F072
:102170008D81882339F08091510382FF03C082E072
:102180000E942D16DF91CF910895CE010E949110EB
:10219000CE010E94BA0CF6CF90E080E00E947A1E39
:1021A00090E080E00E949F1E0E9491150E94CA1537
:1021B00008950E9459150E94CC1008950E9481151F
:1021C0000E94D910089592959F70963091F058F41E
:1021D000925F9F70923058F4803F19F030F4883E3F
:1021E00030F481E008959A5FF4CF843FD1F380E02A
:1021F0000895883EB0F3813FD1F7F3CFFC012481ED
:10220000222339F0808191810E945F120E94E310A5
:10221000089580E00895A6E0B0E0E1E1F1E10C94DA
:102220001E2A2696E2E00C943A2AA7E0B0E0EBE101
:10223000F1E10C941E2A2796E2E00C943A2A0895C4
:102240000E941F1108950E94201190938402809390
:102250008302089508950E94231108952091830216
:1022600030918402822B932B0E9423110895209198
:10227000830230918402822393230E9423110895C4
:102280002091830230918402822793270E94231198
:1022900008950E941F1108950E94491108950E94F7
:1022A0004C119093820280938102089590E080E027
:1022B0000E944F11089521E030E0A90102C0440FAF
:1022C000551F8A95E2F7CA010E944F11089521E037
:1022D00030E002C0220F331F8A95E2F7809181021D
:1022E00090918202822B932B0E944F11089521E03E
:1022F00030E002C0220F331F8A95E2F72095309517
:102300008091810290918202822393230E944F1137
:10231000089521E030E002C0220F331F8A95E2F7D2
:102320008091810290918202822793270E944F110F
:1023300008952091810230918202822B932B0E947A
:102340004F110895209181023091820282239323BC
:102350000E944F11089520918102309182028227BC
:1023600093270E944F1108950895262F277091E01A
:1023700001C0990F2A95EAF723E0769567952A958B
:10238000E1F7660F771F660F771FFA01E60FF71F59
:1023900050E040E0682F70E08191DF0111979B01D0
:1023A000042E02C0369527950A94E2F721702195F4
:1023B0002827292328272C934F5F5F4F443051054E
:1023C00059F70895A82FA77023E0969587952A9529
:1023D000E1F7880F991F880F991FFB01E80FF91F7C
:1023E00050E040E080E0219130E00A2E02C03695B6
:1023F00027950A94E2F721703327042E01C0220F9B
:102400000A94EAF7822B4F5F5F4F4430510559F72A
:102410000895262F943070F4833060F4682F70E0B4
:1024200083E0989F600D711D112449E752E0822FCF
:102430000E94B5110895292F943068F4833058F420
:1024400090E069E772E033E0239F800D911D112435
:102450000E94E211089580E00895B0E0A0E0E3E377
:10246000F2E10C94172A7C01009181021091820202
:102470008091830290918402082B192BCFE0D0E049
:10248000CC24C394D12CBC2EC6010C2E02C0880FC4
:10249000991F0A94E2F780239123892B49F421970D
:1024A00090F7B12C8B2DCDB7DEB7E9E00C94332A31
:1024B000B7018C2F0E943E19019789F3F3CFCF9378
:1024C000DF93EC010E942D12BE010E943E19DF91A4
:1024D000CF9108951F93CF93DF93EB0190917802F2
:1024E000992339F0CB010E945F12DF91CF911F91A8
:1024F0000895882369F0CB010E942D12182F682FB0
:10250000CE010E940912BE01812F0E943E19EDCF1B
:10251000CB010E941B12182FF6CF1F93CF93DF938E
:10252000C091850217E0809186028C1304C0DF9170
:10253000CF911F910895D0E01C9FF0011D9FF00DD9
:102540001124E957FD4F20813181428153816481FB
:10255000758186810E9415112196C770E4CF209164
:10256000BF023091C0024091C1025091C2026091FD
:10257000C3027091C4028091C5020E941511089592
:10258000CF93DF938091C502807F09F04DC0809189
:10259000C402882309F448C0E09185025091860264
:1025A000C091C002D091BF026091C1027091C2027D
:1025B00047E05E17C9F18E2F90E0E49FF0011124EF
:1025C000E957FD4F2481222391F1489FF001499F53
:1025D000F00D1124DF01A957BD4F11962C911197D1
:1025E0002C1325C02C912D1322C015962C911597D4
:1025F00021111DC012962D913C91261B370B283CB2
:102600003105A8F48091C5028F7080618093C50266
:10261000E357FD4F80818F70806180838FEB92E064
:102620000E94A9100E948D12DF91CF910895FC01A4
:102630003196E770BECF482F209185029091860297
:1026400057E0291302C080E0089530E0529FF00166
:10265000539FF00D1124E957FD4F8181681306C087
:102660008081481303C085818111EECF2F5F3F4FDA
:102670002770E7CFA4E1B0E0E0E4F3E10C94142A82
:102680008C0186E0F801DE011F9601900D928A957B
:10269000E1F7F8018481E5809FEBA92E92E0B92E45
:1026A0009091C30291111FC08823D1F0EE20A9F0B0
:1026B000C8010E94FE10F82E882379F087E0F80107
:1026C000D50101900D928A95E1F7C5010E94FB0D9D
:1026D0000E94C0120E94AF125FC0C8010E94A910E0
:1026E000FF24F39459C0C080D18082809380F09001
:1026F000C4022091C1023091C202A401421B530BBB
:10270000FF2009F4F9C0483C510508F0A7C0882310
:1027100009F442C09091C0028091C502282F207F09
:1027200009F05CC09D1116C09091BF02C91212C081
:10273000E1104EC08F7080618093C5020E94AF127D
:102740008FEB92E00E94A9108091C502F801868368
:10275000F12C22C0E1103CC06D2D8C2D0E941B136A
:102760006D2D8C2D0E941B13E82E8111F1CFCF8689
:10277000D88A8F8598890E945F12292F22952F7001
:10278000243078F49F702230A8F09923B9F0F80132
:102790009681907F99F4FE2C8F2D6496ECE00C943A
:1027A000302A2A5F2F70223068F0C8010E94A910D9
:1027B000EF2CF1CF992311F0882369F3805E8830E4
:1027C00050F3F3CF803F38F3815F833070F7E3CF6E
:1027D0008091C50281608093C502BACF9D1113C05C
:1027E0009091BF02C9120FC0E1100DC08683C801CD
:1027F0000E94A91087E0F801AFEBB2E001900D92C2
:102800008A95E1F767CFC8010E94FE10882309F47A
:1028100064CFEE2009F461CF8091C502803288F048
:102820002091BF023091C002398728879B868A8613
:102830009091C3029C871D868E87CE0108960E94C8
:10284000A91087E0F801AFEBB2E001900D928A95F4
:10285000E1F70E94C0120E94AF1242CF9091C502D0
:10286000292F207FA1F4682D9A8A898AA6017A8966
:102870009E2D0E940B118FEB92E00E94A91087E021
:10288000F50111928A95E9F70E94AF1261CF882372
:1028900009F482CF8091C0028D1110C08091BF02D7
:1028A000C8120CC0E1100AC09683C8010E94A9108A
:1028B00087E0F50111928A95E9F76ECFC8010E9471
:1028C000FE10882309F409CFEE2009F406CF809189
:1028D000C502803208F4B5CF2091BF023091C0020A
:1028E0003A8329839C828B829091C3029D831E82AE
:1028F0008F83CE010196A3CF483C5105B8F58823BC
:1029000009F4EECEFE2CEE2009F4E7CE8091C00251
:102910008D111EC08091BF02C8121AC08091C502DD
:1029200080FD0DC0982F907F51F08683903F09F471
:102930005ECF982F907F905F8F70892B57CF87E065
:10294000F801AFEBB2E001900D928A95E1F724CF48
:10295000C8010E94FE10811174CF8091C502816070
:102960008093C502C8010E94A91016CF682D9A8ACB
:10297000898AA6017A899E2D0E940B1187E0F501B4
:1029800011928A95E9F7A6CEAEE0B0E0EAECF4E168
:102990000C941D2A288739874A875B876C877D8737
:1029A0008E87CE0108960E943A138823B1F06C8579
:1029B000662341F0288539854A855B857D858E852E
:1029C0000E94151117E0809185029091860289136B
:1029D0003DC02E96E3E00C94392A87E0FE0138963C
:1029E000DE01119601900D928A95E1F78C8588237E
:1029F00049F32091860230E0C9010196877099273A
:102A0000409185024817190699F097E0929FD001EE
:102A1000939FB00D1124A957BD4FFE01319601902F
:102A20000D929A95E1F7809386020E948D12CACF8B
:102A30000E94DE10109286021092850287E0EFEB72
:102A4000F2E0DF011D928A95E9F7BCCF819FC001BA
:102A5000112489579D4F0E943A13882309F4B9CF56
:102A6000E09185021E9FF0011124E957FD4F20815E
:102A70003181428153816481758186810E94151163
:102A80008091850290E00196877099278093850256
:102A90009ACF682F80910001909101010E940C1F34
:102AA0000895682F80910001909101010E940F1FED
:102AB000089580910001909101010E94121F0895D4
:102AC0008091CE0286958695869508958091CE0256
:102AD000877008959091CE02977081E009F480E0AC
:102AE00008958091DA0208959091DA02892B8093FB
:102AF000DA02089580959091DA0298239093DA0291
:102B000008951092DA0208959091D902892B80934A
:102B1000D902089580959091D90298239093D90273
:102B200008951092D902089508950E949415089569
:102B30009091CF02292F282331F08095892380930B
:102B4000CF020E949515089508950E94A415089536
:102B50009091D002292F2823281729F0982B9093A1
:102B6000D0020E94A51508959091D002292F282304
:102B700031F0809589238093D0020E94A515089595
:102B80008091D002882329F01092D00280E00E9428
:102B9000A5150895CF93DF93E0910001F091010115
:102BA0008091DA028083E0910001F091010180813F
:102BB0009091D902892B80839091D002992381F042
:102BC000E0910001F09101018081892B8083809147
:102BD0000001909101010E94C41E81110E94C01544
:102BE000C0910001D091010148E050E066EC72E034
:102BF000CE010E94452A892B59F088E0FE01A6ECFF
:102C0000B2E001900D928A95E1F7CE010E94361E46
:102C1000DF91CF91089508950E940B160895909129
:102C2000510392FF11C098E0899F90011124622BFB
:102C30006093CE020E9467118091CE0286958695A0
:102C400086950E940C1608950E94671108951092AF
:102C5000CE0280E00E940C1608959091CE028095DD
:102C600089238093CE02282F277069F4891759F0A1
:102C70009091510392FF07C08695869586950E9494
:102C800077110E9427160895CF93C82F8091510382
:102C900082FB992790F99C17E9F0C0FB82F9809399
:102CA000510380915003909151030E949F1682E03E
:102CB0000E942D168091ED0280FF0CC01F92CF93D1
:102CC00089EF90E09F938F930E944A020F900F909C
:102CD0000F900F90CF9108958091510382FB882728
:102CE00080F991E089270E944416089581E00E94AE
:102CF0004416089580E00E94441608956FEF7FEF18
:102D000090E080E00E94972A089590E080E00E9481
:102D1000632A21E0863E9E4F09F020E0822F08952D
:102D200082E090E00E945B2A089583E090E00E9498
:102D30005B2A089584E090E00E94632A0895BC0114
:102D400084E090E00E94972A0895AB01BC018FE0D7
:102D500090E00E948B2A0895AB01BC0183E190E0D2
:102D60000E948B2A089560E070E0CB010E94AC16AF
:102D7000089560E070E0CB010E94A5160E94B31692
:102D80000895A8E0B0E0E7ECF6E10C941E2A66EEA8
:102D90007EEF90E080E00E94972A60E082E090E081
:102DA0000E94792A60E083E090E00E94792A1092E4
:102DB00084021092830260E074E184E090E00E945B
:102DC000972A60E086E090E00E94792A6FEF87E022
:102DD00090E00E94792A40E050E0BA0188E090E05B
:102DE0000E948B2A60E084E290E00E94792A60E0F1
:102DF00087E190E00E94792A60E08CE090E00E94F8
:102E0000792A60E08DE090E00E94792A19821A8286
:102E10001B821C821D821E821F82188648E050E0A1
:102E200068E170E0CE0101960E94692A40E050E01E
:102E3000BA0180E290E00E948B2A0E94B91628967F
:102E4000E2E00C943A2A0E94C1160895682F8EE0A1
:102E500090E00E94792A0895A6E0B0E0E2E3F7E16D
:102E60000C941C2A0E94BE1F8C018091DB02909161
:102E7000DC028017910781F019821A820E94BE1F1E
:102E8000682F49815A81792F80E090E00E94CB0D14
:102E90001093DC020093DB022696E4E00C94382ABF
:102EA0000E94CA1F6093E9027093EA028093EB02CA
:102EB0009093EC026093E5027093E6028093E70240
:102EC0009093E80208950E94CA1F6093E9027093EC
:102ED000EA028093EB029093EC026093E10270931C
:102EE000E2028093E3029093E40208950895089526
:102EF0000E94761708950E947F0B08958DEF91E24E
:102F00000E94E21B0E9477170E947817089581E0C3
:102F100008950E94871708950E94871708950895BD
:102F20000E948F170E94DE0B08950E94351A0E949E
:102F30007D0D08950E94B51F0E94DE1C0E94361B65
:102F40000E9495170E945F220E947B170895A6E0B9
:102F5000B0E0EDEAF7E10C94152A0E94891781117F
:102F60000DC00E942C170E94FB1C81110E94631748
:102F70000E94900D2696EBE00C94312A0E944C1B87
:102F80008DEDA82E82E0B82E750110E0F7010191B9
:102F90007F01812F0E945B1A1F5F143009F441C02A
:102FA0000817A1F38091ED0281FD0E94611A0E9431
:102FB0008C17C82E10E099249394812F0E945B1ADD
:102FC000082FF50181915F01081729F1D02ED8262D
:102FD000F12CEE24E3948D2D8E21A9F0CC2099F0D4
:102FE000F9821A830E94BE1F9C838B839D8291E08D
:102FF000802F8E2109F490E049815A816B817C8178
:103000008D810E94CB0DF394EE0CF3E0FF12E3CF21
:10301000F501319700831F5F143079F60E94501735
:10302000A2CF0813BFCF9DCF1F93CF93DF930E94F2
:103030004319EC01C11580E5D807F0F5C11580E40E
:10304000D80708F09CC0C03ED10520F5CD3CD10585
:1030500008F082C0C83AD10578F4C53AD10508F025
:1030600073C0C130D10519F1209709F1C430D105E1
:10307000F0F4D0E0C0E01BC0C33CD105D0F7C85A83
:10308000D0E0CC0FDD1FC959DE4F0990D881C02D8B
:10309000D4640DC0C11580E2D80708F0D1C0C115B5
:1030A00081E0D80708F05AC0C83ED10510F7CE011C
:1030B000DF91CF911F910895C03682E5D80718F5AA
:1030C000C03482E5D80708F06BC0C03282E5D8076B
:1030D00008F05FC0C11582E5D80708F497C02C2F0F
:1030E0002695269580E2289F900111248C2F8370CD
:1030F000C1E0D0E002C0CC0FDD1F8A95E2F7C22B01
:10310000D32BDD68D4CFC03A82E5D80760F4C0384D
:1031100082E5D80708F459C0CF71D0E0DC2FCC2766
:10312000C46FD06AC4CFC03C82E5D80708F462C03F
:10313000C03E82E5D80708F09CCFDC2FCC27CC27F7
:10314000DF71C06FD06AB3CFC55AD0E0C356DE4F2F
:10315000C881D0E0D064ABCFD065A9CF8D2F0E94BD
:10316000E519182FCE0199270E944319C12FD0E0ED
:10317000DC2FCC27CC27DF71C82BD92B98CFCE01E1
:1031800099270E944319CC27DF70C82BD92BD06A0E
:103190008ECFCF71D0E0DC2FCC27C16FD06A87CF24
:1031A0002C2F26952695277080E2289F90011124C8
:1031B0008C2F8370C1E0D0E002C0CC0FDD1F8A9558
:1031C000E2F7C22BD32BDC6872CF2C2F26952695E5
:1031D000277080E2289F900111248C2F8370C1E01A
:1031E000D0E002C0CC0FDD1F8A95E2F7C22BD32BB3
:1031F000DA685DCF8C2F8F710E94E519C82FD0E05F
:10320000DC2FCC27CC27DF71D06251CF8C2F8F7170
:103210000E94E51955E0D695C7955A95E1F7CF700C
:10322000D0E0DC2FCC27282F30E084FF05C044E01D
:10323000220F331F4A95E1F7C22BD32BD06937CF2A
:103240008D2F8F710E94E519182FCE0199270E94AA
:103250004319C12FD0E0DC2FCC27CC27DF71C82B3E
:10326000D92BD2CF462F743030F4633020F4672F3F
:103270000E94610C089590E080E008950E94321948
:103280000E941418089582389105B9F1B0F4813381
:10329000910509F47DC048F48932910509F46DC0A7
:1032A0008A32910509F47BC008958533910509F4AC
:1032B0005FC08933910509F10895833E9105D9F1E5
:1032C00038F4803E910529F1823E910579F1089507
:1032D000863E9105D9F1873E910509F43EC0843EB2
:1032E000910541F52091510321FF24C080915003A5
:1032F00084FD19C087EE90E008952091500323705B
:1033000009F05AC02091510323FF14C089E290E0D4
:1033100008952091500320FD38C03091510330FFB3
:1033200009C024FF43C090E080E00895209150033D
:1033300022FDF7CF08952091500322FD3AC030912D
:10334000510330FD39C024FFF5CFEDCF209150035C
:1033500023FFF0CF24FDE7CFCDCF2091500323FDF5
:103360002EC03091510331FFEECF84EE90E00895EE
:103370002091500325FFDECFC9CF2091500325FDBA
:1033800021C02091510323FFD5CF89E390E0D2CF14
:103390002091500326FFCECF8AE290E0089520913D
:1033A000500326FFC7CF81E390E0089583EE90E0BD
:1033B000089582EE90E0089580EE90E0089586EE04
:1033C00090E0089585E390E008959091500392FF76
:1033D00010C041E0282F2471243009F040E031E092
:1033E000282F2871283009F030E0431711F02CE025
:1033F000822793FF10C041E0282F2471243109F067
:1034000040E031E0282F2871283109F030E04317DF
:1034100011F02CE082273091510330FF10C051E0B1
:10342000282F2171213009F050E041E0282F287128
:10343000283009F040E0541711F029E0822731FFCD
:1034400010C041E0282F2171213109F040E031E026
:10345000282F2871283109F030E0431711F029E0B6
:10346000822794FD877E089508950E948516811114
:1034700002C00E9423170E9490168093ED020E94C2
:103480009A1690935103809350030E94341A0E941D
:10349000951690E00E942B118091810290918202FA
:1034A0000E944C11089508950E94531A089508959A
:1034B0000E94571A0895E82FF0E0EA5AFC4F8081E5
:1034C0000895B0E0A0E0E7E6FAE10C94182A8DE157
:1034D00091E00E94B10186E5E82E83E0F82ED0E06D
:1034E000C0E098E1C92E91E0D92E00E111E0DF9310
:1034F000CF93DF92CF920E944A0285E191E00E9431
:10350000B101F70181917F010E94520D1F928F93AB
:103510001F930F930E944A028EE091E00E94B10136
:1035200021968DB79EB708960FB6F8949EBF0FBE32
:103530008DBFC430D105D9F6CDB7DEB7E8E00C9425
:10354000342A80EA8A95F1F7089500C008950E9410
:10355000A11A0895F894E82FE295EF70F0E031A1F8
:10356000282F2F7081E090E001C0880F2A95EAF79C
:10357000982F9095932391A392A1892B82A378945D
:10358000089584E30E94AA1A85E30E94AA1A86E39A
:103590000E94AA1A87E30E94AA1A85E90E94AA1A21
:1035A00084E90E94AA1A86E90E94AA1A0895B0E046
:1035B000A0E0EDEDFAE10C94182AEC01D62E062FCE
:1035C00010E0C8018D559E4F7C01FC0180818F3F2A
:1035D00009F445C0F894E82FE295EF70F0E091A16E
:1035E0008F7021E030E001C0220F8A95EAF7892F21
:1035F000822B81A382A12095282322A378940E9464
:10360000A51AE0EAF1E043EA51E031E0C12C219152
:103610002F3F51F1A22FA295AF70B0E090968C9100
:1036200090E02F7002C0959587952A95E2F780FD6E
:103630001BC0832FC82A330F4E175F0741F7F701CE
:1036400080818F3F11F00E94AA1A61E0C11001C071
:1036500060E08D2D0E94A71AC00FD11FC882CDB780
:10366000DEB7E8E00C94342A80E0E4CF0E94C11A6F
:1036700084E0E6E5F3E0DF01982F1D929A95E9F7E3
:10368000E2E5F3E0DF011D928A95E9F784E00E940C
:10369000891B0E94541A0895A4E0B0E0E2E5FBE122
:1036A0000C941D2A19821A821B821C8210E0612F41
:1036B000CE0101960E94D71A1F5F1430C1F744E073
:1036C00050E0BE016F5F7F4F82E593E00E94452A84
:1036D00021E0009709F420E0892B61F089819A812B
:1036E000AB81BC818093520390935303A093540306
:1036F000B093550344E066E573E082E593E00E94F1
:103700008A1B182F0E94581A812F2496E3E00C94EC
:10371000392A0895CF92DF92EF92FF920F931F9371
:10372000CF936C017B01042F222349F081E0809329
:10373000F0020E94BE1F9093EF028093EE02C091B0
:10374000F002C1110AC0C0E08C2FCF911F910F91E0
:10375000FF90EF90DF90CF9008958091EE029091CE
:10376000EF020E94D61F059770F310E0A801B60182
:10377000C7010E94452A892B41F0A801B601C70163
:103780000E94522A1092F002DFCFC0E0FBCF0E94CD
:10379000D5220E949A170E94E22208950E94E722F1
:1037A0000E94A7170E94092308950E94571F0E9494
:1037B000BB220E947E170E94C71B0E94CE1B0E9444
:1037C0009017FBCF9093C7018093C6010895CF93C4
:1037D000DF93EC01FB018581882309F4D2C09E01AF
:1037E00030572332310508F0B2C00E949A169093E8
:1037F000510380935003FE01E150F047E232F1059E
:1038000020F4E554F54D0C94082A80915003816012
:103810008093500393C0809151038860809351033B
:103820008DC0809150038260F3CF809150038460FB
:10383000EFCF809150038860EBCF8091510381607E
:10384000EDCF809151038260E9CF80915003806178
:10385000DFCF809150038062DBCF80915003806482
:10386000D7CF0E94DE10809150038068D1CF809125
:1038700050038C60CDCF809151038360CFCF809176
:1038800050038E7FC5CF80915103877FC7CF809132
:1038900050038D7FBDCF809150038B7FB9CF809136
:1038A0005003877FB5CF809151038E7FB7CF809132
:1038B00051038D7FB3CF809150038F7EA9CF80912C
:1038C00050038F7DA5CF809150038F7BA1CF0E94A5
:1038D000DE10809150038F779BCF80915003837FC0
:1038E00097CF809151038C7F99CF8091500382FBB9
:1038F000992790F921E0922790FB82F990FB83F9B8
:1039000087CF80915103982F909591708E7F892B4E
:1039100090FB81F983CF90915003892F8F7B96FF85
:10392000806476CF0E94DE1090915003892F97FB20
:1039300087F980586DCF81E00E942617809150034F
:10394000909151030E949F160E94DE1080E0DF914B
:10395000CF91089580E0F0CF90915003892F8F7E12
:1039600094FF806155CF90915003892F8E7F90FFF7
:1039700081604ECF90915103892F877F93FF88609C
:103980004DCF81E0E4CF8FE891E00197F1F700C0DF
:1039900000000895CF93DF93D62F0E94750BC82F98
:1039A000882341F06AE070E089EAD11101C08AEA17
:1039B0000E94720E8C2FDF91CF91089581E0809349
:1039C000F2028098889A8198899A0E94C31C20915B
:1039D000F20244EF52E0FA018E2F841B821708F0A6
:1039E00008958FB18170799904C090E0892B8193FB
:1039F000F3CF92E0FBCFEF92FF920F931F93CF9301
:103A0000DF9310E000E08091F202181730F0802F71
:103A1000CDB7DEB7E6E00C94362AC12FD0E0EFB187
:103A2000E17079993BC080E08E2BDE01AC50BD4F38
:103A3000EC919E2F9370981779F1EE0FEE0FE82B13
:103A4000EC93EF70F0E0E955FE4FCE018D509D4FA5
:103A50007C018081F7019081890F8083181604F51D
:103A6000FE01EF50FD4F80818F5F808360E0812FEA
:103A70000E94CA1C81E0F701908197FF0AC0CF50D5
:103A8000DD4F88818150888361E0812F0E94CA1CAC
:103A900081E0F7011082082B1F5FB5CF82E0C4CF11
:103AA00080E0E9CFCF93DF93EB0186319C4711F59E
:103AB0000E9471159D81992399F08A7A91E009F409
:103AC00090E09093F502811109C089E20E944915A6
:103AD0000E94CA1580E0DF91CF91089585E3F6CF6B
:103AE0008091F502811104C089E20E945115F0CF46
:103AF00085E3FBCF81E0EFCF0F931F93CF93DF934D
:103B0000C42FD22FFC0185818823C9F04093F8028D
:103B10000E94BE1F9093F7028093F60280E28C0F02
:103B2000883040F4C77081E001C0880FCA95EAF779
:103B30000E94930EDF91CF911F910F9108951091E4
:103B4000F802141332C08091F6029091F7020E949D
:103B5000D61F883C910548F5C0E2CD0F1D17B9F07E
:103B600080E2810F883040F4177081E001C0880F37
:103B70001A95EAF70E949A0EC83048F481E09D2F0A
:103B8000977001C0880F9A95EAF70E94930E802FD4
:103B90000E948A0EC83070F6D77081E001C0880F8D
:103BA000DA95EAF70E949A0EC5CF80E28C0F883032
:103BB00008F6C77081E001C0880FCA95EAF7F2CF16
:103BC0000F93DB0188519C4787309105A0F5FC01DC
:103BD000E352F54D0C94082A06E221EE41EE6AE12B
:103BE0007CE7CD010E947C1D80E00F91089507E2E3
:103BF00025EE45EE6BE17CE7F4CF06E221EE40EEE8
:103C000068E17CE7EECF07E225EE44EE69E17CE770
:103C1000E8CF06E221EE42EE6CE17CE7E2CF07E27C
:103C200025EE46EE6DE17CE7DCCF08E221E045EED3
:103C30006EE17CE7D6CF15968C91882319F010920F
:103C4000F802D3CF81E0D1CF9093FE028093FD02A2
:103C50000895E091FD02F091FE02309729F0019065
:103C6000F081E02D0995089580E00895EF92FF928C
:103C70000F931F93CF93DF938C01E091FD02F0919E
:103C8000FE02309791F10280F381E02D0995809139
:103C9000ED0282FF2AC080FF04C084E391E00E940D
:103CA000B101D0E0C0E08EE2E82E81E0F82E8091F4
:103CB000ED0280FF0EC0F801EC0FFD1F80811F9206
:103CC0008F93FF92EF920E944A020F900F900F90F5
:103CD0000F902196C830D10551F78091ED0280FFF9
:103CE00004C08CE291E00E94B101CDB7DEB7E6E0FE
:103CF0000C94362AA3E0B0E0E0E8FEE10C941E2A22
:103D00002091FB023091FC0228173907A1F0909313
:103D1000FC028093FB02E091FD02F091FE023097DD
:103D200051F023E029839B838A830680F781E02D6D
:103D3000CE01019609952396E2E00C943A2AA3E07D
:103D4000B0E0E5EAFEE10C941E2A2091F9023091E0
:103D5000FA0228173907A1F09093FA028093F9022A
:103D6000E091FD02F091FE02309751F024E02983AA
:103D70009B838A830680F781E02DCE010196099509
:103D80002396E2E00C943A2A9C012E5F3F4FAC014F
:103D9000485F5F4F80E02417350709F40895F90163
:103DA00091919F019923B9F38F5FF5CF662349F075
:103DB000FC01329608962191261729F0E817F90799
:103DC000D1F780E0089581E008959C01FC013296CE
:103DD0009FEF80E04191461751F09F3F19F4411148
:103DE00001C0982F8F5F8630A9F79F3F09F408958F
:103DF000290F311D97FD3A95F90162830895FC0161
:103E0000329608962191261303C0DF0111971C9268
:103E1000E817F907B9F708950E94E51E08950E9472
:103E2000FF1E0895029626E0FC0111922A95E9F7FB
:103E3000089508950E94191F0895811106C081E018
:103E40008093FF020E941A1F089582E0F9CF83E059
:103E50008093FF020E941A1F08950E941D1F08955B
:103E600081E08093FF020E941A1F08950E94301F74
:103E70000895089508950E943A1F08950895089599
:103E80000E94391F0895CF930E943E1F0E944C1B31
:103E90000E943F1FC0E08C2F0E945B1A811105C059
:103EA000CF5FC430C1F7CF91089581E0FCCF85B7D3
:103EB000806885BF85B7806885BF08951F921FB64B
:103EC0001F9211248F939F93AF93BF938091000310
:103ED000811113C080915A0390915B03A0915C0300
:103EE000B0915D034196A11DB11D80935A0390933B
:103EF0005B03A0935C03B0935D03BF91AF919F916F
:103F00008F911F901FBE1F9018958091620384307F
:103F100031F10E94480D1092000388E190E020E406
:103F20000FB6F894A895809360000FBE20936000B0
:103F300083B7817F846083BF83B7816083BF7894B8
:103F4000889583B78E7F83BF0FB6F894A89580912C
:103F50006000886180936000109260000FBE089539
:103F60000E94DE100E944D0D089582E084BD93E012
:103F700095BD9AEF97BD80936E0008952FB7F89482
:103F800080915A0390915B03A0915C03B0915D0313
:103F90002FBF08952FB7F89460915A0370915B0377
:103FA00080915C0390915D032FBF08959C014FB7F2
:103FB000F89480915A0390915B03A0915C03B091B7
:103FC0005D034FBF821B930B0895CF92DF92EF9258
:103FD000FF922FB7F894C0905A03D0905B03E09003
:103FE0005C03F0905D032FBFA7019601261B370BE2
:103FF000480B590BCA01B901FF90EF90DF90CF90A9
:10400000089578941F921FB61F9211248F939F9347
:10401000AF93BF9380915A0390915B03A0915C038F
:10402000B0915D030196A11DB11D80935A03909339
:104030005B03A0935C03B0935D03BF91AF919F912D
:104040008F911F901FBE1F90189581E08093E00014
:1040500080E28093D8001092C9008FE19EE401971E
:10406000F1F700C0000087E090EBDC0180936B0368
:1040700090936C03A0936D03B0936E0388E19CE072
:104080000FB6F894A895809360000FBE90936000DF
:10409000FFCF88E19CE00FB6F894A895809360006C
:1040A0000FBE90936000FFCF80910C030895089598
:1040B0009B01BA01909162039430E9F48F70809370
:1040C000E9009FEF8091E800915085FD06C085EDE5
:1040D0008A95F1F700009111F5CF8091E80085FFF6
:1040E0000AC050E040E0C9010E9485238091E800A9
:1040F0008E778093E800089543E050E0BC0182E0B1
:104100000E9458200895CF93DF93EC0148E050E0DF
:10411000BC0181E00E94582088E0FE01A4E0B3E0E9
:1041200001900D928A95E1F7DF91CF9108958CE689
:1041300091E00E94B10180916103811109C00E9448
:1041400015250E9472258091E20084608093E20030
:10415000089588E691E00E94B101109261030895EC
:1041600084E691E00E94B1010E94301F089580E62C
:1041700091E00E94B10160915E0381E0611101C094
:1041800080E00E94271F08958CE591E00E94B10114
:104190009091620381E0943009F080E060915E03C9
:1041A0000E942D1F0895209102032F5F822F62E34A
:1041B0000E949329992319F02093020308951092E5
:1041C0000203809103038823F1F08091620384301D
:1041D000C1F49091E9009F702091EC00822F8170D2
:1041E00020FD80E8892B93E09093E9009091EB000B
:1041F00090FF04C09091EE0097FD08C08F708093EF
:10420000E9001092030308951092F1009091E800E4
:1042100095FDFACF9091E80090FFF0CF9091E800E3
:104220009E779093E800EACF42E061EC81E00E9443
:10423000912442E261EC82E00E94912442E261EC2E
:1042400083E00E94912442E061EC84E00E9491248A
:1042500042E160E886E00E94912442E161E885E065
:104260000E9491249091620381E0943009F080E0F3
:1042700060915E030E941D1F089580916403833046
:1042800009F462C050F48130D9F1823009F4A4C03D
:1042900082E091E00E94E52856C08A3009F48BC084
:1042A0008B3009F46EC0893099F7809163038132B5
:1042B00079F78091670390916803029748F780919E
:1042C000E800877F8093E8008091E80082FF37C094
:1042D0009091F3008091F200029731F48091F10007
:1042E000813011F0863021F48091F10080930C032D
:1042F0008091E8008B778093E8000E94C524C8CFA6
:1043000080916303813A21F68091E800877F809352
:10431000E8008091670390916803892B61F468E05D
:1043200084E093E070E00E94D4238091E8008B77D2
:104330008093E800ADCF60E090E080E0F3CF809123
:1043400062038111C1CF089580916303813A09F01E
:104350009FCF8091670390916803892B09F098CFD4
:104360008091E800877F8093E8008091E80080FFDB
:10437000FCCF809125018093F1008091E8008E7739
:10438000BACF80916303813209F082CF80916703B5
:1043900090916803892B09F07BCF8091E800877F9B
:1043A0008093E8000E94C5248091650380932501D5
:1043B0000E94DE106DCF80916303813209F068CFD7
:1043C0008091E800877F8093E8000E94C524809157
:1043D000660380930D035CCF80916303813A09F0FB
:1043E00057CF8091E800877F8093E8008091E800B4
:1043F00080FFFCCF80910D03BECF9FB7F894109241
:1044000003039FBF90916203943009F048C020914C
:10441000E9002F703091EC00932F917030FD90E8FF
:10442000922B23E02093E9002091EB0020FF34C081
:104430002091EE0027FF30C020910103222321F0BC
:104440002091E80025FF28C01092010326E030915A
:10445000E80035FF14C08093F1008091E80085FDED
:1044600027C08091E80080FFFCCF8091E8008E7724
:104470008093E8009F709093E90080E00895309168
:104480006203343049F43091EB0035FD05C0215012
:1044900041F481E0809301039F709093E9008FEFD6
:1044A0000895EFE9FFE03197F1F700C00000CFCFAA
:1044B0008FB7F89421E0209303038FBFDBCF82E016
:1044C00090E0909315018093140182E091E00E94A6
:1044D000A9280895CF93DF9382E091E00E945028AD
:1044E000EC01209719F4DF91CF91089582E091E0DB
:1044F0000E9479280E94940A2197F3CFCF93C0910C
:10450000E9002091EC00922F917020FD90E820911D
:10451000120120FF12C0CF70C92B909103019F7030
:104520009093E9009091EB0090FF04C09091EE0011
:1045300097FD05C0CF70C093E900CF9108959FEF1C
:104540002091E800915025FD06C025ED2A95F1F750
:1045500000009111F5CF8093F10082E091E00E947C
:104560000B288091E80080FFE5CF8091E8008E77EE
:104570008093E800DFCF84B7877F84BF0FB6F894BD
:10458000A89580916000886180936000109260001F
:104590000FBE80E890E00FB6F8948093610090938E
:1045A00061000FBE0E94361F08950E9415250E94CB
:1045B0007225E2EEF0E080818460808378940E942E
:1045C000F02708958DE191E00E94241E08958091C6
:1045D0006203853071F48091ED0280FF04C086E4AF
:1045E00091E00E94B10180916203853019F00E9430
:1045F000B01F08950E94851F80916003882399F35E
:104600000E94431F882379F30E946F230E94DE10CB
:10461000EACF0E946A2282E091E00E943928089540
:104620009A014091690350916A030E9418230895EA
:10463000492F55274330510521F168F44130510588
:1046400009F443C04230510509F444C090E080E0D1
:1046500050E040E026C04132510551F1423251054F
:10466000A9F76330710590F7FB01EE0FFF1FE654C9
:10467000FE4F4081518169547E4FFB01808190E063
:1046800010C099278130910581F0009729F0029799
:10469000E9F6E0E7F1E002C0E0E9F1E0849190E0C2
:1046A000AF01F901518340830895ECE7F1E0F6CFC3
:1046B0006330710558F6660F771FFB01E054FE4F1B
:1046C0004081518189E090E0ECCF82E190E04CE2C2
:1046D00052E0E7CF88E990E044E951E0E2CF80E1A1
:1046E00089BD82E189BD09B400FEFDCF8091D8006B
:1046F0008F7D8093D8008091E00082608093E000FD
:104700008091E00081FDFCCF0895AF92BF92CF92DF
:10471000DF92FF920F931F93CF93DF936C01EB0116
:104720008A010E94E424F82E811123C0011511058D
:1047300039F0F80180819181C81BD90BC80ED91EB0
:10474000B12CA12C2097A9F08091E80085FD22C012
:104750008091E8008E778093E80001151105A1F0A3
:10476000F80180819181A80EB91EB182A08285E0F6
:10477000F82E8F2DDF91CF911F910F91FF90DF9039
:10478000CF90BF90AF9008950E94E4248823D1F287
:10479000F82EEFCFF60181916F018093F100219700
:1047A000FFEFAF1ABF0ACECFFC0180916903909151
:1047B0006A0386179707A0F06115710529F4909197
:1047C000E8009E779093E80090E06115710551F440
:1047D000911108C08091E80082FF34C080E0089504
:1047E000BC01F2CF809162038823C1F18530C1F111
:1047F0008091E80083FD30C08091E80082FDEACF1F
:104800008091E80080FFE1CF8091F3002091F200D9
:10481000382F6115710519F02830310558F091E0F5
:104820002830310509F090E02091E8002E772093A0
:10483000E800CBCF81918093F100615071092F5F27
:104840003F4FE7CF80916203882341F0853041F0EC
:104850008091E80083FFBECF81E0089582E0089553
:1048600083E00895FC018091690390916A038617A3
:104870009707A0F06115710529F48091E8008E7703
:104880008093E80090E06115710551F4911108C022
:104890008091E80082FF35C080E00895BC01F2CF2E
:1048A000809162038823C9F18530C9F18091E800C5
:1048B00083FD31C08091E80082FDEACF8091E8005D
:1048C00080FFE1CF8091F3002091F200382F611535
:1048D000710519F02830310558F091E02830310584
:1048E00009F090E08091E8008E778093E800CBCFCC
:1048F00084918093F1003196615071092F5F3F4F91
:10490000E6CF80916203882341F0853041F08091A9
:10491000E80083FFBDCF81E0089582E0089583E041
:104920000895982F973028F08F708093E90081E0E8
:1049300008959093E900242F762F50E0981731F0D6
:104940007091EC002091ED005091F00021FD02C02B
:104950009F5FE8CF3091EB003E7F3093EB003091CA
:10496000ED003D7F3093ED003091EB0031603093EE
:10497000EB007093EC002093ED005093F000209139
:10498000EE0027FDE5CF80E008958091630387FF67
:1049900013C08091E80082FF06C08091E8008B7709
:1049A0008093E80004C0809162038111F2CF0895E2
:1049B000809162038823D9F38091E80080FFF8CFCB
:1049C0008091E8008E77ECCF2091E4003091E500F3
:1049D00095E6A9012091EC00822F817020FF06C08E
:1049E0008091E80080FF06C080E008952091E800F3
:1049F00022FD1AC080916203882389F0853089F0F6
:104A00008091EB0085FD0FC02091E4003091E5001E
:104A100042175307F9F29150E1F684E0089582E0DD
:104A2000089583E0089581E008950E9484250E94FE
:104A30008C25E0EEF0E0808181608083E8EDF0E09D
:104A400080818F77808319BCA7EDB0E08C918E7F39
:104A50008C9380818F7E80831092610308950F93E1
:104A60001F93CF93DF930E9484250E948C25C8ED6D
:104A7000D0E088818F778883888180688883888167
:104A80008F7D888319BC1092620310925E0310928E
:104A9000600310925F0300EE10E0F80180818B7FCD
:104AA000808388818160888342E060E080E00E94AA
:104AB0009124E1EEF0E080818E7F8083E2EEF0E0F1
:104AC000808181608083808188608083F80180811B
:104AD0008E7F8083888180618883DF91CF911F9151
:104AE0000F910895E8EDF0E080818F7E8083E7EDFF
:104AF000F0E080818160808384E082BF81E08093E8
:104B000061030E942F250895E8EDF0E080818E7FFB
:104B100080831092E20008951092DA001092E10072
:104B200008951F920F920FB60F9211242F933F9367
:104B30004F935F936F937F938F939F93AF93BF93A5
:104B4000EF93FF938091E10082FF0BC08091E20020
:104B500082FF07C08091E1008B7F8093E1000E947B
:104B6000D3208091DA0080FF19C08091D80080FFA7
:104B700015C08091DA008E7F8093DA008091D90091
:104B800080FF96C080E189BD82E189BD09B400FE45
:104B9000FDCF81E0809362030E9497208091E10025
:104BA00080FF19C08091E20080FF15C08091E20073
:104BB0008E7F8093E2008091E20080618093E2002A
:104BC0008091D80080628093D80019BC85E08093E2
:104BD00062030E94B7208091E10084FF2BC0809186
:104BE000E20084FF27C080E189BD82E189BD89B5EB
:104BF000982F917080FFFBCF8091D8008F7D80939C
:104C0000D8008091E1008F7E8093E1008091E200E6
:104C10008F7E8093E2008091E20081608093E200C9
:104C200080915E03882309F449C084E08093620385
:104C30000E94C4208091E10083FF29C08091E2009E
:104C400083FF25C08091E100877F8093E10082E0AF
:104C50008093620310925E038091E1008E7F8093C7
:104C6000E1008091E2008E7F8093E2008091E2007B
:104C700080618093E20042E060E080E00E94912445
:104C80008091F00088608093F0000E94B020FF9136
:104C9000EF91BF91AF919F918F917F916F915F91B4
:104CA0004F913F912F910F900FBE0F901F9018952D
:104CB00019BC109262030E94A92070CF8091E3007A
:104CC00087FD93E090936203B3CF1F920F920FB6CC
:104CD0000F9211242F933F934F935F936F937F9382
:104CE0008F939F93AF93BF93CF93DF93EF93FF93F4
:104CF000D091E900DF708091EC00C82FC17080FD79
:104D0000C0E81092E9008091F000877F8093F00066
:104D100078940E94A9261092E9008091F0008860A2
:104D20008093F000CD2BCF70C093E900FF91EF91FD
:104D3000DF91CF91BF91AF919F918F917F916F91B3
:104D40005F914F913F912F910F900FBE0F901F9049
:104D50001895AAE2B0E0EFEAF6E20C941D2A83E689
:104D600093E02091F100FC012193CF01F3E08B3619
:104D70009F07B9F70E943D218091E80083FF1EC183
:104D800080916303909164039A3008F017C1E92F72
:104D9000F0E0EC51F54D0C94082A803899F08238F7
:104DA00009F00CC1809167038F70873008F006C14D
:104DB0008093E9008091EB0085FB882780F91092B1
:104DC000E90006C080915F039091600391118260B9
:104DD0009091E800977F9093E8008093F100109203
:104DE000F1008091E8008E77E5C0882309F4D3C0F4
:104DF000823009F0E3C0809165038111D6C08091B3
:104E000067038F702FEF280F263008F0D7C08093EC
:104E1000E9002091EB0020FFC8C0933031F480916D
:104E2000EB0080628093EB00C0C09091EB0090613A
:104E30009093EB0021E030E001C0220F8A95EAF761
:104E40002093EA001092EA008091EB008860EACF9C
:104E50008111B4C0109165031F778091E3008078C1
:104E6000812B8093E3008091E800877F8093E800A6
:104E70000E94C5248091E80080FFFCCF8091E30070
:104E800080688093E30082E0111183E080936203E5
:104E900095C08058823008F091C080916503909150
:104EA00066038C3D23E09207A1F583E08A838AE2C2
:104EB00089834FB7F894DE01139620E03EE051E27B
:104EC000E32FF0E050935700E49120FF03C0E295F8
:104ED000EF703F5FEF708E2F90E0EA30C0F0C79622
:104EE0008D939D932F5F243159F74FBF8091E80038
:104EF000877F8093E8006AE270E0CE0101960E940D
:104F0000D4238091E8008B778093E80057C0C09647
:104F1000E7CF6091670370916803AE014F5F5F4F09
:104F20000E941023BC01892B09F448C09091E8002D
:104F3000977F9093E80089819A810E943224E1CF83
:104F40008038E1F58091E800877F8093E8008091C8
:104F50005E038093F10045CF811130C090916503CD
:104F6000923060F58091E800877F8093E80090930D
:104F70005E030E94C52480915E03882311F084E0C3
:104F800005C08091E30087FDFACF81E08093620342
:104F90000E94142113C080916503813079F481E06F
:104FA000933009F080E0809360031092E9008091D3
:104FB000E800877F8093E8000E94C5248091E80084
:104FC00083FF0AC08091E800877F8093E80080918A
:104FD000EB0080628093EB00AA96E3E00C94392A00
:104FE000CF93809162038823A1F0C091E900CF7034
:104FF0009091EC00892F817090FD80E8C82B109271
:10500000E9008091E80083FD0E94A926CF70C0933B
:10501000E900CF91089520916203243041F5FC010D
:105020004489558966897789452B462B472BF9F0AA
:1050300081818F708093E9009091F3008091F2005C
:10504000892B11F480E008959091E8008091E800A8
:105050008E778093E80095FDF5CF0E94E4248111BE
:1050600007C09091E8009E779093E800089582E051
:10507000089520916203243091F4FC0144895589FC
:1050800066897789452B462B472B49F021812F7064
:105090002093E9002091E80020FD0E940B2808954C
:1050A00020916203243019F090E080E00895FC0123
:1050B0004489558966897789452B462B472BA1F36F
:1050C00086818F708093E9008091E80082FFECCFA9
:1050D0009091F3008091F200009731F42091E80064
:1050E0002B772093E80008959091F3008091F200CF
:1050F000089520916203243019F08FEF9FEF0895F7
:10510000FC014489558966897789452B462B472BB5
:10511000A1F386818F708093E9008091E80082FF7F
:10512000ECCF9091F3008091F200892B79F080917F
:10513000F10090E03091F3002091F200232B29F44C
:105140002091E8002B772093E80008958FEF9FEFE0
:10515000F1CFA8E0B0E0EFEAF8E20C941C2A8C0151
:1051600080916203843059F5F80184899589A68974
:10517000B789892B8A2B8B2B11F183858F708093B4
:10518000E90088E0E6E2F1E0DE01119601900D927F
:105190008A95E1F750E040E068E070E0CE010196CA
:1051A0000E94852350E040E062E070E0C801429632
:1051B0000E9485238091E8008E778093E8002896EE
:1051C000E4E00C94382A08950895CF93DF93EC011E
:1051D0008091E80083FF10C028818091670390913F
:1051E00068032817190641F4809164038132E9F0BD
:1051F00030F4803209F44EC0DF91CF9108958232AD
:1052000009F47BC08332C1F7809163038132A1F737
:105210008091E800877F8093E8000E94C524609118
:105220006503CE010E94E428E7CF80916303813AB1
:1052300019F78091E800877F8093E8008091E8006B
:1052400080FFFCCF8C899D89AE89BF898093F10056
:10525000492F5A2F6B2F77274093F100AD01662716
:1052600077274093F1008B2F9927AA27BB2780939C
:10527000F100888D8093F100898D8093F1008A8DF3
:105280008093F1008091E8008E778093E8000E947F
:10529000C524B2CF80916303813209F0ADCF8091F4
:1052A000E800877F8093E8008091E80082FF20C0BB
:1052B0003091F1002091F1009091F1008091F10086
:1052C0003C8B2D8B9E8B8F8B8091F100888F8091F2
:1052D000F100898F8091F1008A8F8091E8008B77AF
:1052E0008093E8000E94C524CE010E94E32884CF69
:1052F000809162038111D8CF7FCF80916303813287
:1053000009F07ACF8091E800877F8093E8000E94BF
:10531000C5248091650390916603998B888BCE019B
:105320000E94E32869CF991B79E004C0991F961762
:1053300008F0961B881F7A95C9F780950895AA1BD7
:10534000BB1B51E107C0AA1FBB1FA617B70710F070
:10535000A61BB70B881F991F5A95A9F780959095A2
:10536000BC01CD01089597FB072E16F4009407D0D9
:1053700077FD09D00E949F2907FC05D03EF4909547
:1053800081959F4F0895709561957F4F0895A1E293
:105390001A2EAA1BBB1BFD010DC0AA1FBB1FEE1FAF
:1053A000FF1FA217B307E407F50720F0A21BB30BFA
:1053B000E40BF50B661F771F881F991F1A9469F776
:1053C00060957095809590959B01AC01BD01CF01D2
:1053D0000895052E97FB1EF400940E94002A57FDA5
:1053E00007D00E94C72907FC03D04EF40C94002A72
:1053F00050954095309521953F4F4F4F5F4F089501
:1054000090958095709561957F4F8F4F9F4F089530
:10541000EE0FFF1F0590F491E02D09942F923F921B
:105420004F925F926F927F928F929F92AF92BF92B4
:10543000CF92DF92EF92FF920F931F93CF93DF9360
:10544000CDB7DEB7CA1BDB0B0FB6F894DEBF0FBEBD
:10545000CDBF09942A88398848885F846E847D840A
:105460008C849B84AA84B984C884DF80EE80FD800C
:105470000C811B81AA81B981CE0FD11D0FB6F89482
:10548000DEBF0FBECDBFED010895FB01DC0104C0FE
:105490008D910190801921F441505040C8F7881B2C
:1054A000990B0895FB01DC0102C001900D9241505F
:1054B0005040D8F70895F999FECF92BD81BDF89A72
:1054C000992780B50895A8E1B0E042E050E00C943F
:1054D0009F2ADC01A40FB51F4150504048F0CB017A
:1054E000840F951F2E910E947A2A41505040D0F788
:1054F0000895262FF999FECF92BD81BDF89A0197A4
:1055000000B4021639F01FBA20BD0FB6F894FA9A0B
:10551000F99A0FBE08950396272F0E947A2A0E94B7
:10552000792A252F0E947A2A242F0C947A2A019610
:10553000272F0E947A2A0C94792ADC01CB01FC01E6
:10554000F999FECF06C0F2BDE1BDF89A319600B4DC
:105550000D9241505040B8F70895F894FFCFE00EF7
:10556000E00E300F300F950F0F0F0F0F0F0FB10F11
:105570002210311031103F1CB31C471C111C151C8C
:105580004B1C191C4F1C5B1C251CAC1C291C5F1CD4
:105590002D1C631C8B1C311C671C921C371C6D1C42
:1055A000751C1D1C531C211C571C3B1C711C811C91
:1055B0009B1CAA1C0B1C431CBA1CFD1D031EEC1DCE
:1055C000F71D091E0F1E151ECD26F526DE27F52612
:0C55D000DE2728274927DE27A027AC276C
:1055DC00D1020385100000010610000001840800B0
:1055EC0000010000000000000000000000542083B7
:1055FC002057207C2001A120000000000200E200C6
:10560C00E900EA00B500B600B700CD008301CC007C
:10561C008A0192019401210223022402250226020E
:10562C0027022A02B300B4006F0070009F01CB0167
:10563C009F02A002818283E200E900EA00B500B675
:10564C0000B700CD008301CC008A019201940121A6
:10565C0002230224022502260227022A02B300B4E6
:10566C00006F0070009F01CB019F02A0028182831A
:10567C009594963435363700FF0100010000FFFF8A
:10568C000000010001FF00443222920260023E023F
:06569C00A601BF01D801C8
:1070000055C00000B7C00000B5C00000B3C000000C
:10701000B1C00000AFC00000ADC00000ABC00000B8
:10702000A9C00000A7C00000F9C00000A3C0000074
:10703000A1C000009FC000009DC000009BC00000D8
:1070400099C0000097C0000095C0000093C00000E8
:1070500018C300008FC000008DC000008BC000006E
:1070600089C0000087C0000085C0000083C0000008
:1070700081C000007FC000007DC000007BC0000018
:1070800079C0000077C0000075C0000073C0000028
:1070900071C000006FC000006DC000006BC0000038
:1070A00069C0000067C0000065C0000011241FBE59
:1070B000CFEFDAE0DEBFCDBF89E0E3E0F0E0809320
:1070C0005700849180FD12C004B601FE0AC081E021
:1070D0002091890130918A0122343C4D19F080E0E1
:1070E00001C081E094B79D7F94BF11C004B603FE38
:1070F0000AC081E02091890130918A0122343C4DFF
:1071000019F080E001C080E094B7977F94BF30E031
:1071100020E0F901459154918823B9F04F3F5F4F2A
:10712000A1F084B7877F84BF0FB6F894A8958091AB
:107130006000886180936000109260000FBE109222
:107140008A0110928901F901099511E0A0E0B1E0EE
:10715000E4EFFEE702C005900D92AC36B107D9F717
:1071600021E0ACE6B1E001C01D92A938B207E1F719
:1071700098D2BEC645CF8091800187FF11C0809113
:10718000E80082FF06C08091E8008B7F8093E800D2
:1071900003C08EB38111F3CF08958EB38823E1F33A
:1071A0008091E80080FFF9CF8091E8008E7FEECFDC
:1071B000E8E7F1E082819381582F492F84819581FE
:1071C00098278927982750937701409376019093C9
:1071D0007501809374010895815098F09091F300A7
:1071E0002091F200392F232B69F49091E8009B7FC6
:1071F0009093E8009091E80092FDEECF9EB391113C
:10720000F9CF08959091F100E7CF80B180B981B1B5
:1072100081B980B180B981B181B908950F920FB65B
:107220000F921F9211248F939F938091DA0080FF19
:1072300016C08091D80080FF12C08091DA008E7F46
:107240008093DA008091D90080FF83C080E189BDFE
:1072500082E189BD09B400FEFDCF81E08EBB809143
:10726000E10080FF16C08091E20080FF12C0809193
:10727000E2008E7F8093E2008091E2008061809343
:10728000E2008091D80080628093D80019BC85E02C
:107290008EBB8091E10084FF27C08091E20084FFD3
:1072A00023C080E189BD82E189BD89B5982F9170A5
:1072B00080FFFBCF8091D8008F7D8093D800809194
:1072C000E1008F7E8093E1008091E2008F7E8093C9
:1072D000E2008091E20081608093E2008091880169
:1072E0008823D1F184E08EBB8091E10083FF2AC026
:1072F0008091E20083FF26C08091E100877F809328
:10730000E10082E08EBB109288018091E1008E7FC7
:107310008093E1008091E2008E7F8093E200809173
:10732000E20080618093E2008091EB0081608093B5
:10733000EB001092ED001092EC0082E28093ED00E1
:107340008091EE009F918F911F900F900FBE0F9034
:10735000189519BC1EBA83CF8091E30087FD93E096
:107360009EBBC2CF9FB7F89407B600FCFDCFF9993A
:10737000FECF809529E0E1E0F0E0082E2093570051
:10738000E8959FBF089589E0E1E0F0E08093570021
:107390008491089529E0FC01209357008491089579
:1073A00021E2FC01209357008491089507B600FC68
:1073B000FDCFF999FECF21E0FB010A012093570090
:1073C000E895112408950F931F93611520E7720724
:1073D0008105910550F48B019C010F77112722271D
:1073E0003327012B022B032B19F01F910F910895C6
:1073F0002FB7F89407B600FCFDCFF999FECF35E022
:10740000FB0130935700E89507B600FCFDCF81E102
:1074100080935700E8952FBFE8CF0F931F93611516
:1074200020E772078105910550F48B019C010F77CD
:10743000112722273327012B022B032B19F01F9131
